{
  "_format": "hh-sol-artifact-1",
  "contractName": "Trustified",
  "sourceName": "contracts/Trustified.sol",
  "abi": [
    {
      "inputs": [],
      "stateMutability": "nonpayable",
      "type": "constructor"
    },
    {
      "anonymous": false,
      "inputs": [
        {
          "indexed": true,
          "internalType": "address",
          "name": "owner",
          "type": "address"
        },
        {
          "indexed": true,
          "internalType": "address",
          "name": "approved",
          "type": "address"
        },
        {
          "indexed": true,
          "internalType": "uint256",
          "name": "tokenId",
          "type": "uint256"
        }
      ],
      "name": "Approval",
      "type": "event"
    },
    {
      "anonymous": false,
      "inputs": [
        {
          "indexed": true,
          "internalType": "address",
          "name": "owner",
          "type": "address"
        },
        {
          "indexed": true,
          "internalType": "address",
          "name": "operator",
          "type": "address"
        },
        {
          "indexed": false,
          "internalType": "bool",
          "name": "approved",
          "type": "bool"
        }
      ],
      "name": "ApprovalForAll",
      "type": "event"
    },
    {
      "anonymous": false,
      "inputs": [
        {
          "indexed": false,
          "internalType": "address",
          "name": "",
          "type": "address"
        },
        {
          "indexed": false,
          "internalType": "uint256",
          "name": "",
          "type": "uint256"
        }
      ],
      "name": "TokenMinted",
      "type": "event"
    },
    {
      "anonymous": false,
      "inputs": [
        {
          "indexed": false,
          "internalType": "address",
          "name": "",
          "type": "address"
        },
        {
          "indexed": false,
          "internalType": "address",
          "name": "",
          "type": "address"
        },
        {
          "indexed": false,
          "internalType": "uint256",
          "name": "",
          "type": "uint256"
        }
      ],
      "name": "TokenTransfered",
      "type": "event"
    },
    {
      "anonymous": false,
      "inputs": [
        {
          "indexed": true,
          "internalType": "address",
          "name": "from",
          "type": "address"
        },
        {
          "indexed": true,
          "internalType": "address",
          "name": "to",
          "type": "address"
        },
        {
          "indexed": true,
          "internalType": "uint256",
          "name": "tokenId",
          "type": "uint256"
        }
      ],
      "name": "Transfer",
      "type": "event"
    },
    {
      "inputs": [
        {
          "internalType": "address",
          "name": "to",
          "type": "address"
        },
        {
          "internalType": "uint256",
          "name": "tokenId",
          "type": "uint256"
        }
      ],
      "name": "approve",
      "outputs": [],
      "stateMutability": "nonpayable",
      "type": "function"
    },
    {
      "inputs": [
        {
          "internalType": "address",
          "name": "owner",
          "type": "address"
        }
      ],
      "name": "balanceOf",
      "outputs": [
        {
          "internalType": "uint256",
          "name": "",
          "type": "uint256"
        }
      ],
      "stateMutability": "view",
      "type": "function"
    },
    {
      "inputs": [
        {
          "internalType": "string",
          "name": "tokenUri",
          "type": "string"
        },
        {
          "internalType": "uint256",
          "name": "quantity",
          "type": "uint256"
        }
      ],
      "name": "bulkMintBadgesERC721",
      "outputs": [],
      "stateMutability": "nonpayable",
      "type": "function"
    },
    {
      "inputs": [
        {
          "internalType": "string[]",
          "name": "tokenUris",
          "type": "string[]"
        }
      ],
      "name": "bulkMintERC721",
      "outputs": [],
      "stateMutability": "nonpayable",
      "type": "function"
    },
    {
      "inputs": [
        {
          "internalType": "uint256",
          "name": "tokenId",
          "type": "uint256"
        }
      ],
      "name": "getApproved",
      "outputs": [
        {
          "internalType": "address",
          "name": "",
          "type": "address"
        }
      ],
      "stateMutability": "view",
      "type": "function"
    },
    {
      "inputs": [
        {
          "internalType": "uint256",
          "name": "eventId",
          "type": "uint256"
        }
      ],
      "name": "getTokenIds",
      "outputs": [
        {
          "internalType": "uint256[]",
          "name": "",
          "type": "uint256[]"
        }
      ],
      "stateMutability": "view",
      "type": "function"
    },
    {
      "inputs": [
        {
          "internalType": "address",
          "name": "owner",
          "type": "address"
        },
        {
          "internalType": "address",
          "name": "operator",
          "type": "address"
        }
      ],
      "name": "isApprovedForAll",
      "outputs": [
        {
          "internalType": "bool",
          "name": "",
          "type": "bool"
        }
      ],
      "stateMutability": "view",
      "type": "function"
    },
    {
      "inputs": [],
      "name": "name",
      "outputs": [
        {
          "internalType": "string",
          "name": "",
          "type": "string"
        }
      ],
      "stateMutability": "view",
      "type": "function"
    },
    {
      "inputs": [],
      "name": "newEventId",
      "outputs": [
        {
          "internalType": "uint256",
          "name": "",
          "type": "uint256"
        }
      ],
      "stateMutability": "view",
      "type": "function"
    },
    {
      "inputs": [
        {
          "internalType": "uint256",
          "name": "tokenId",
          "type": "uint256"
        }
      ],
      "name": "ownerOf",
      "outputs": [
        {
          "internalType": "address",
          "name": "",
          "type": "address"
        }
      ],
      "stateMutability": "view",
      "type": "function"
    },
    {
      "inputs": [
        {
          "internalType": "string",
          "name": "tokenURI",
          "type": "string"
        }
      ],
      "name": "safeMint",
      "outputs": [
        {
          "internalType": "uint256",
          "name": "",
          "type": "uint256"
        }
      ],
      "stateMutability": "nonpayable",
      "type": "function"
    },
    {
      "inputs": [
        {
          "internalType": "address",
          "name": "from",
          "type": "address"
        },
        {
          "internalType": "address",
          "name": "to",
          "type": "address"
        },
        {
          "internalType": "uint256",
          "name": "tokenId",
          "type": "uint256"
        }
      ],
      "name": "safeTransferFrom",
      "outputs": [],
      "stateMutability": "nonpayable",
      "type": "function"
    },
    {
      "inputs": [
        {
          "internalType": "address",
          "name": "from",
          "type": "address"
        },
        {
          "internalType": "address",
          "name": "to",
          "type": "address"
        },
        {
          "internalType": "uint256",
          "name": "tokenId",
          "type": "uint256"
        },
        {
          "internalType": "bytes",
          "name": "data",
          "type": "bytes"
        }
      ],
      "name": "safeTransferFrom",
      "outputs": [],
      "stateMutability": "nonpayable",
      "type": "function"
    },
    {
      "inputs": [
        {
          "internalType": "address",
          "name": "operator",
          "type": "address"
        },
        {
          "internalType": "bool",
          "name": "approved",
          "type": "bool"
        }
      ],
      "name": "setApprovalForAll",
      "outputs": [],
      "stateMutability": "nonpayable",
      "type": "function"
    },
    {
      "inputs": [
        {
          "internalType": "bytes4",
          "name": "interfaceId",
          "type": "bytes4"
        }
      ],
      "name": "supportsInterface",
      "outputs": [
        {
          "internalType": "bool",
          "name": "",
          "type": "bool"
        }
      ],
      "stateMutability": "view",
      "type": "function"
    },
    {
      "inputs": [],
      "name": "symbol",
      "outputs": [
        {
          "internalType": "string",
          "name": "",
          "type": "string"
        }
      ],
      "stateMutability": "view",
      "type": "function"
    },
    {
      "inputs": [
        {
          "internalType": "uint256",
          "name": "",
          "type": "uint256"
        },
        {
          "internalType": "uint256",
          "name": "",
          "type": "uint256"
        }
      ],
      "name": "tokenIds",
      "outputs": [
        {
          "internalType": "uint256",
          "name": "",
          "type": "uint256"
        }
      ],
      "stateMutability": "view",
      "type": "function"
    },
    {
      "inputs": [
        {
          "internalType": "uint256",
          "name": "tokenId",
          "type": "uint256"
        }
      ],
      "name": "tokenURI",
      "outputs": [
        {
          "internalType": "string",
          "name": "",
          "type": "string"
        }
      ],
      "stateMutability": "view",
      "type": "function"
    },
    {
      "inputs": [
        {
          "internalType": "address",
          "name": "from",
          "type": "address"
        },
        {
          "internalType": "address",
          "name": "to",
          "type": "address"
        },
        {
          "internalType": "uint256",
          "name": "tokenId",
          "type": "uint256"
        }
      ],
      "name": "transferFrom",
      "outputs": [],
      "stateMutability": "nonpayable",
      "type": "function"
    },
    {
      "inputs": [
        {
          "internalType": "address",
          "name": "from",
          "type": "address"
        },
        {
          "internalType": "address",
          "name": "to",
          "type": "address"
        },
        {
          "internalType": "uint256",
          "name": "tokenId",
          "type": "uint256"
        }
      ],
      "name": "transferToken",
      "outputs": [],
      "stateMutability": "nonpayable",
      "type": "function"
    }
  ],
  "bytecode": "0x60806040523480156200001157600080fd5b506040518060400160405280600a81526020017f54727573746966696564000000000000000000000000000000000000000000008152506040518060400160405280600381526020017f54464e0000000000000000000000000000000000000000000000000000000000815250816000908051906020019062000096929190620000b8565b508060019080519060200190620000af929190620000b8565b505050620001cd565b828054620000c69062000168565b90600052602060002090601f016020900481019282620000ea576000855562000136565b82601f106200010557805160ff191683800117855562000136565b8280016001018555821562000136579182015b828111156200013557825182559160200191906001019062000118565b5b50905062000145919062000149565b5090565b5b80821115620001645760008160009055506001016200014a565b5090565b600060028204905060018216806200018157607f821691505b602082108114156200019857620001976200019e565b5b50919050565b7f4e487b7100000000000000000000000000000000000000000000000000000000600052602260045260246000fd5b6132fe80620001dd6000396000f3fe608060405234801561001057600080fd5b506004361061012c5760003560e01c806389f1aa39116100ad578063d4bd81ff11610071578063d4bd81ff14610365578063d4d94b0514610383578063e985e9c51461039f578063eed8cc35146103cf578063f5537ede146103ff5761012c565b806389f1aa39146102c357806395d89b41146102df578063a22cb465146102fd578063b88d4fde14610319578063c87b56dd146103355761012c565b806342842e0e116100f457806342842e0e146101e757806357991d30146102035780636352211e14610233578063695850fb1461026357806370a08231146102935761012c565b806301ffc9a71461013157806306fdde0314610161578063081812fc1461017f578063095ea7b3146101af57806323b872dd146101cb575b600080fd5b61014b600480360381019061014691906123db565b61041b565b6040516101589190612950565b60405180910390f35b6101696104fd565b604051610176919061296b565b60405180910390f35b610199600480360381019061019491906124c2565b61058f565b6040516101a69190612867565b60405180910390f35b6101c960048036038101906101c4919061235e565b6105d5565b005b6101e560048036038101906101e09190612258565b6106ed565b005b61020160048036038101906101fc9190612258565b610746565b005b61021d600480360381019061021891906124c2565b610766565b60405161022a919061292e565b60405180910390f35b61024d600480360381019061024891906124c2565b6107d1565b60405161025a9190612867565b60405180910390f35b61027d6004803603810190610278919061242d565b610858565b60405161028a9190612b2d565b60405180910390f35b6102ad60048036038101906102a891906121f3565b61088e565b6040516102ba9190612b2d565b60405180910390f35b6102dd60048036038101906102d8919061239a565b610946565b005b6102e7610a4a565b6040516102f4919061296b565b60405180910390f35b61031760048036038101906103129190612322565b610adc565b005b610333600480360381019061032e91906122a7565b610af2565b005b61034f600480360381019061034a91906124c2565b610b54565b60405161035c919061296b565b60405180910390f35b61036d610c67565b60405161037a9190612b2d565b60405180910390f35b61039d6004803603810190610398919061246e565b610c6d565b005b6103b960048036038101906103b4919061221c565b610d31565b6040516103c69190612950565b60405180910390f35b6103e960048036038101906103e491906124eb565b610dc5565b6040516103f69190612b2d565b60405180910390f35b61041960048036038101906104149190612258565b610df6565b005b60007f80ac58cd000000000000000000000000000000000000000000000000000000007bffffffffffffffffffffffffffffffffffffffffffffffffffffffff1916827bffffffffffffffffffffffffffffffffffffffffffffffffffffffff191614806104e657507f5b5e139f000000000000000000000000000000000000000000000000000000007bffffffffffffffffffffffffffffffffffffffffffffffffffffffff1916827bffffffffffffffffffffffffffffffffffffffffffffffffffffffff1916145b806104f657506104f582610ea5565b5b9050919050565b60606000805461050c90612db7565b80601f016020809104026020016040519081016040528092919081815260200182805461053890612db7565b80156105855780601f1061055a57610100808354040283529160200191610585565b820191906000526020600020905b81548152906001019060200180831161056857829003601f168201915b5050505050905090565b600061059a82610f0f565b6004600083815260200190815260200160002060009054906101000a900473ffffffffffffffffffffffffffffffffffffffff169050919050565b60006105e0826107d1565b90508073ffffffffffffffffffffffffffffffffffffffff168373ffffffffffffffffffffffffffffffffffffffff161415610651576040517f08c379a000000000000000000000000000000000000000000000000000000000815260040161064890612acd565b60405180910390fd5b8073ffffffffffffffffffffffffffffffffffffffff16610670610f5a565b73ffffffffffffffffffffffffffffffffffffffff16148061069f575061069e81610699610f5a565b610d31565b5b6106de576040517f08c379a00000000000000000000000000000000000000000000000000000000081526004016106d590612aed565b60405180910390fd5b6106e88383610f62565b505050565b6106f7838261101b565b610736576040517f08c379a000000000000000000000000000000000000000000000000000000000815260040161072d90612b0d565b60405180910390fd5b6107418383836110b0565b505050565b61076183838360405180602001604052806000815250610af2565b505050565b6060600960008381526020019081526020016000208054806020026020016040519081016040528092919081815260200182805480156107c557602002820191906000526020600020905b8154815260200190600101908083116107b1575b50505050509050919050565b6000806107dd836113aa565b9050600073ffffffffffffffffffffffffffffffffffffffff168173ffffffffffffffffffffffffffffffffffffffff16141561084f576040517f08c379a000000000000000000000000000000000000000000000000000000000815260040161084690612aad565b60405180910390fd5b80915050919050565b60008061086560076113e7565b905061087160076113f5565b61087b308261140b565b6108858184611629565b80915050919050565b60008073ffffffffffffffffffffffffffffffffffffffff168273ffffffffffffffffffffffffffffffffffffffff1614156108ff576040517f08c379a00000000000000000000000000000000000000000000000000000000081526004016108f690612a4d565b60405180910390fd5b600360008373ffffffffffffffffffffffffffffffffffffffff1673ffffffffffffffffffffffffffffffffffffffff168152602001908152602001600020549050919050565b600061095260086113e7565b905061095e60086113f5565b60005b8251811015610a055760006109b58483815181106109a8577f4e487b7100000000000000000000000000000000000000000000000000000000600052603260045260246000fd5b6020026020010151610858565b9050600960008481526020019081526020016000208190806001815401808255809150506001900390600052602060002001600090919091909150555080806109fd90612e1a565b915050610961565b5080600a819055507fb9144c96c86541f6fa89c9f2f02495cccf4b08cd6643e26d34ee00aa586558a83382604051610a3e929190612905565b60405180910390a15050565b606060018054610a5990612db7565b80601f0160208091040260200160405190810160405280929190818152602001828054610a8590612db7565b8015610ad25780601f10610aa757610100808354040283529160200191610ad2565b820191906000526020600020905b815481529060010190602001808311610ab557829003601f168201915b5050505050905090565b610aee610ae7610f5a565b838361169d565b5050565b610b03610afd610f5a565b8361101b565b610b42576040517f08c379a0000000000000000000000000000000000000000000000000000000008152600401610b399061298d565b60405180910390fd5b610b4e8484848461180a565b50505050565b6060610b5f82610f0f565b6000600660008481526020019081526020016000208054610b7f90612db7565b80601f0160208091040260200160405190810160405280929190818152602001828054610bab90612db7565b8015610bf85780601f10610bcd57610100808354040283529160200191610bf8565b820191906000526020600020905b815481529060010190602001808311610bdb57829003601f168201915b505050505090506000610c09611866565b9050600081511415610c1f578192505050610c62565b600082511115610c54578082604051602001610c3c929190612843565b60405160208183030381529060405292505050610c62565b610c5d8461187d565b925050505b919050565b600a5481565b6000610c7960086113e7565b9050610c8560086113f5565b60005b82811015610ceb576000610c9b85610858565b905060096000848152602001908152602001600020819080600181540180825580915050600190039060005260206000200160009091909190915055508080610ce390612e1a565b915050610c88565b5080600a819055507fb9144c96c86541f6fa89c9f2f02495cccf4b08cd6643e26d34ee00aa586558a83382604051610d24929190612905565b60405180910390a1505050565b6000600560008473ffffffffffffffffffffffffffffffffffffffff1673ffffffffffffffffffffffffffffffffffffffff16815260200190815260200160002060008373ffffffffffffffffffffffffffffffffffffffff1673ffffffffffffffffffffffffffffffffffffffff16815260200190815260200160002060009054906101000a900460ff16905092915050565b60096020528160005260406000208181548110610de157600080fd5b90600052602060002001600091509150505481565b3073ffffffffffffffffffffffffffffffffffffffff166323b872dd8484846040518463ffffffff1660e01b8152600401610e3393929190612882565b600060405180830381600087803b158015610e4d57600080fd5b505af1158015610e61573d6000803e3d6000fd5b505050507fec61728879a33aa50b55e1f4789dcfc1c680f30a24d7b8694a9f874e242a97b4838383604051610e9893929190612882565b60405180910390a1505050565b60007f01ffc9a7000000000000000000000000000000000000000000000000000000007bffffffffffffffffffffffffffffffffffffffffffffffffffffffff1916827bffffffffffffffffffffffffffffffffffffffffffffffffffffffff1916149050919050565b610f18816118e5565b610f57576040517f08c379a0000000000000000000000000000000000000000000000000000000008152600401610f4e90612aad565b60405180910390fd5b50565b600033905090565b816004600083815260200190815260200160002060006101000a81548173ffffffffffffffffffffffffffffffffffffffff021916908373ffffffffffffffffffffffffffffffffffffffff160217905550808273ffffffffffffffffffffffffffffffffffffffff16610fd5836107d1565b73ffffffffffffffffffffffffffffffffffffffff167f8c5be1e5ebec7d5bd14f71427d1e84f3dd0314c0f7b2291e5b200ac8c7c3b92560405160405180910390a45050565b600080611027836107d1565b90508073ffffffffffffffffffffffffffffffffffffffff168473ffffffffffffffffffffffffffffffffffffffff16148061106957506110688185610d31565b5b806110a757508373ffffffffffffffffffffffffffffffffffffffff1661108f8461058f565b73ffffffffffffffffffffffffffffffffffffffff16145b91505092915050565b8273ffffffffffffffffffffffffffffffffffffffff166110d0826107d1565b73ffffffffffffffffffffffffffffffffffffffff1614611126576040517f08c379a000000000000000000000000000000000000000000000000000000000815260040161111d906129cd565b60405180910390fd5b600073ffffffffffffffffffffffffffffffffffffffff168273ffffffffffffffffffffffffffffffffffffffff161415611196576040517f08c379a000000000000000000000000000000000000000000000000000000000815260040161118d90612a0d565b60405180910390fd5b6111a38383836001611926565b8273ffffffffffffffffffffffffffffffffffffffff166111c3826107d1565b73ffffffffffffffffffffffffffffffffffffffff1614611219576040517f08c379a0000000000000000000000000000000000000000000000000000000008152600401611210906129cd565b60405180910390fd5b6004600082815260200190815260200160002060006101000a81549073ffffffffffffffffffffffffffffffffffffffff02191690556001600360008573ffffffffffffffffffffffffffffffffffffffff1673ffffffffffffffffffffffffffffffffffffffff168152602001908152602001600020600082825403925050819055506001600360008473ffffffffffffffffffffffffffffffffffffffff1673ffffffffffffffffffffffffffffffffffffffff16815260200190815260200160002060008282540192505081905550816002600083815260200190815260200160002060006101000a81548173ffffffffffffffffffffffffffffffffffffffff021916908373ffffffffffffffffffffffffffffffffffffffff160217905550808273ffffffffffffffffffffffffffffffffffffffff168473ffffffffffffffffffffffffffffffffffffffff167fddf252ad1be2c89b69c2b068fc378daa952ba7f163c4a11628f55a4df523b3ef60405160405180910390a46113a58383836001611a4c565b505050565b60006002600083815260200190815260200160002060009054906101000a900473ffffffffffffffffffffffffffffffffffffffff169050919050565b600081600001549050919050565b6001816000016000828254019250508190555050565b600073ffffffffffffffffffffffffffffffffffffffff168273ffffffffffffffffffffffffffffffffffffffff16141561147b576040517f08c379a000000000000000000000000000000000000000000000000000000000815260040161147290612a8d565b60405180910390fd5b611484816118e5565b156114c4576040517f08c379a00000000000000000000000000000000000000000000000000000000081526004016114bb906129ed565b60405180910390fd5b6114d2600083836001611926565b6114db816118e5565b1561151b576040517f08c379a0000000000000000000000000000000000000000000000000000000008152600401611512906129ed565b60405180910390fd5b6001600360008473ffffffffffffffffffffffffffffffffffffffff1673ffffffffffffffffffffffffffffffffffffffff16815260200190815260200160002060008282540192505081905550816002600083815260200190815260200160002060006101000a81548173ffffffffffffffffffffffffffffffffffffffff021916908373ffffffffffffffffffffffffffffffffffffffff160217905550808273ffffffffffffffffffffffffffffffffffffffff16600073ffffffffffffffffffffffffffffffffffffffff167fddf252ad1be2c89b69c2b068fc378daa952ba7f163c4a11628f55a4df523b3ef60405160405180910390a4611625600083836001611a4c565b5050565b611632826118e5565b611671576040517f08c379a000000000000000000000000000000000000000000000000000000000815260040161166890612a6d565b60405180910390fd5b80600660008481526020019081526020016000209080519060200190611698929190611f67565b505050565b8173ffffffffffffffffffffffffffffffffffffffff168373ffffffffffffffffffffffffffffffffffffffff16141561170c576040517f08c379a000000000000000000000000000000000000000000000000000000000815260040161170390612a2d565b60405180910390fd5b80600560008573ffffffffffffffffffffffffffffffffffffffff1673ffffffffffffffffffffffffffffffffffffffff16815260200190815260200160002060008473ffffffffffffffffffffffffffffffffffffffff1673ffffffffffffffffffffffffffffffffffffffff16815260200190815260200160002060006101000a81548160ff0219169083151502179055508173ffffffffffffffffffffffffffffffffffffffff168373ffffffffffffffffffffffffffffffffffffffff167f17307eab39ab6107e8899845ad3d59bd9653f200f220920489ca2b5937696c31836040516117fd9190612950565b60405180910390a3505050565b6118158484846110b0565b61182184848484611a52565b611860576040517f08c379a0000000000000000000000000000000000000000000000000000000008152600401611857906129ad565b60405180910390fd5b50505050565b606060405180602001604052806000815250905090565b606061188882610f0f565b6000611892611866565b905060008151116118b257604051806020016040528060008152506118dd565b806118bc84611be9565b6040516020016118cd929190612843565b6040516020818303038152906040525b915050919050565b60008073ffffffffffffffffffffffffffffffffffffffff16611907836113aa565b73ffffffffffffffffffffffffffffffffffffffff1614159050919050565b6001811115611a4657600073ffffffffffffffffffffffffffffffffffffffff168473ffffffffffffffffffffffffffffffffffffffff16146119ba5780600360008673ffffffffffffffffffffffffffffffffffffffff1673ffffffffffffffffffffffffffffffffffffffff16815260200190815260200160002060008282546119b29190612ccd565b925050819055505b600073ffffffffffffffffffffffffffffffffffffffff168373ffffffffffffffffffffffffffffffffffffffff1614611a455780600360008573ffffffffffffffffffffffffffffffffffffffff1673ffffffffffffffffffffffffffffffffffffffff1681526020019081526020016000206000828254611a3d9190612c77565b925050819055505b5b50505050565b50505050565b6000611a738473ffffffffffffffffffffffffffffffffffffffff16611d0d565b15611bdc578373ffffffffffffffffffffffffffffffffffffffff1663150b7a02611a9c610f5a565b8786866040518563ffffffff1660e01b8152600401611abe94939291906128b9565b602060405180830381600087803b158015611ad857600080fd5b505af1925050508015611b0957506040513d601f19601f82011682018060405250810190611b069190612404565b60015b611b8c573d8060008114611b39576040519150601f19603f3d011682016040523d82523d6000602084013e611b3e565b606091505b50600081511415611b84576040517f08c379a0000000000000000000000000000000000000000000000000000000008152600401611b7b906129ad565b60405180910390fd5b805181602001fd5b63150b7a0260e01b7bffffffffffffffffffffffffffffffffffffffffffffffffffffffff1916817bffffffffffffffffffffffffffffffffffffffffffffffffffffffff191614915050611be1565b600190505b949350505050565b606060006001611bf884611d30565b01905060008167ffffffffffffffff811115611c3d577f4e487b7100000000000000000000000000000000000000000000000000000000600052604160045260246000fd5b6040519080825280601f01601f191660200182016040528015611c6f5781602001600182028036833780820191505090505b509050600082602001820190505b600115611d02578080600190039150507f3031323334353637383961626364656600000000000000000000000000000000600a86061a8153600a8581611cec577f4e487b7100000000000000000000000000000000000000000000000000000000600052601260045260246000fd5b0494506000851415611cfd57611d02565b611c7d565b819350505050919050565b6000808273ffffffffffffffffffffffffffffffffffffffff163b119050919050565b600080600090507a184f03e93ff9f4daa797ed6e38ed64bf6a1f0100000000000000008310611db4577a184f03e93ff9f4daa797ed6e38ed64bf6a1f0100000000000000008381611daa577f4e487b7100000000000000000000000000000000000000000000000000000000600052601260045260246000fd5b0492506040810190505b6d04ee2d6d415b85acef81000000008310611e17576d04ee2d6d415b85acef81000000008381611e0d577f4e487b7100000000000000000000000000000000000000000000000000000000600052601260045260246000fd5b0492506020810190505b662386f26fc100008310611e6c57662386f26fc100008381611e62577f4e487b7100000000000000000000000000000000000000000000000000000000600052601260045260246000fd5b0492506010810190505b6305f5e1008310611ebb576305f5e1008381611eb1577f4e487b7100000000000000000000000000000000000000000000000000000000600052601260045260246000fd5b0492506008810190505b6127108310611f06576127108381611efc577f4e487b7100000000000000000000000000000000000000000000000000000000600052601260045260246000fd5b0492506004810190505b60648310611f4f5760648381611f45577f4e487b7100000000000000000000000000000000000000000000000000000000600052601260045260246000fd5b0492506002810190505b600a8310611f5e576001810190505b80915050919050565b828054611f7390612db7565b90600052602060002090601f016020900481019282611f955760008555611fdc565b82601f10611fae57805160ff1916838001178555611fdc565b82800160010185558215611fdc579182015b82811115611fdb578251825591602001919060010190611fc0565b5b509050611fe99190611fed565b5090565b5b80821115612006576000816000905550600101611fee565b5090565b600061201d61201884612b6d565b612b48565b9050808382526020820190508285602086028201111561203c57600080fd5b60005b8581101561208657813567ffffffffffffffff81111561205e57600080fd5b80860161206b89826121b4565b8552602085019450602084019350505060018101905061203f565b5050509392505050565b60006120a361209e84612b99565b612b48565b9050828152602081018484840111156120bb57600080fd5b6120c6848285612d75565b509392505050565b60006120e16120dc84612bca565b612b48565b9050828152602081018484840111156120f957600080fd5b612104848285612d75565b509392505050565b60008135905061211b8161326c565b92915050565b600082601f83011261213257600080fd5b813561214284826020860161200a565b91505092915050565b60008135905061215a81613283565b92915050565b60008135905061216f8161329a565b92915050565b6000815190506121848161329a565b92915050565b600082601f83011261219b57600080fd5b81356121ab848260208601612090565b91505092915050565b600082601f8301126121c557600080fd5b81356121d58482602086016120ce565b91505092915050565b6000813590506121ed816132b1565b92915050565b60006020828403121561220557600080fd5b60006122138482850161210c565b91505092915050565b6000806040838503121561222f57600080fd5b600061223d8582860161210c565b925050602061224e8582860161210c565b9150509250929050565b60008060006060848603121561226d57600080fd5b600061227b8682870161210c565b935050602061228c8682870161210c565b925050604061229d868287016121de565b9150509250925092565b600080600080608085870312156122bd57600080fd5b60006122cb8782880161210c565b94505060206122dc8782880161210c565b93505060406122ed878288016121de565b925050606085013567ffffffffffffffff81111561230a57600080fd5b6123168782880161218a565b91505092959194509250565b6000806040838503121561233557600080fd5b60006123438582860161210c565b92505060206123548582860161214b565b9150509250929050565b6000806040838503121561237157600080fd5b600061237f8582860161210c565b9250506020612390858286016121de565b9150509250929050565b6000602082840312156123ac57600080fd5b600082013567ffffffffffffffff8111156123c657600080fd5b6123d284828501612121565b91505092915050565b6000602082840312156123ed57600080fd5b60006123fb84828501612160565b91505092915050565b60006020828403121561241657600080fd5b600061242484828501612175565b91505092915050565b60006020828403121561243f57600080fd5b600082013567ffffffffffffffff81111561245957600080fd5b612465848285016121b4565b91505092915050565b6000806040838503121561248157600080fd5b600083013567ffffffffffffffff81111561249b57600080fd5b6124a7858286016121b4565b92505060206124b8858286016121de565b9150509250929050565b6000602082840312156124d457600080fd5b60006124e2848285016121de565b91505092915050565b600080604083850312156124fe57600080fd5b600061250c858286016121de565b925050602061251d858286016121de565b9150509250929050565b60006125338383612825565b60208301905092915050565b61254881612d01565b82525050565b600061255982612c0b565b6125638185612c39565b935061256e83612bfb565b8060005b8381101561259f5781516125868882612527565b975061259183612c2c565b925050600181019050612572565b5085935050505092915050565b6125b581612d13565b82525050565b60006125c682612c16565b6125d08185612c4a565b93506125e0818560208601612d84565b6125e981612ef0565b840191505092915050565b60006125ff82612c21565b6126098185612c5b565b9350612619818560208601612d84565b61262281612ef0565b840191505092915050565b600061263882612c21565b6126428185612c6c565b9350612652818560208601612d84565b80840191505092915050565b600061266b602d83612c5b565b915061267682612f01565b604082019050919050565b600061268e603283612c5b565b915061269982612f50565b604082019050919050565b60006126b1602583612c5b565b91506126bc82612f9f565b604082019050919050565b60006126d4601c83612c5b565b91506126df82612fee565b602082019050919050565b60006126f7602483612c5b565b915061270282613017565b604082019050919050565b600061271a601983612c5b565b915061272582613066565b602082019050919050565b600061273d602983612c5b565b91506127488261308f565b604082019050919050565b6000612760602e83612c5b565b915061276b826130de565b604082019050919050565b6000612783602083612c5b565b915061278e8261312d565b602082019050919050565b60006127a6601883612c5b565b91506127b182613156565b602082019050919050565b60006127c9602183612c5b565b91506127d48261317f565b604082019050919050565b60006127ec603d83612c5b565b91506127f7826131ce565b604082019050919050565b600061280f603183612c5b565b915061281a8261321d565b604082019050919050565b61282e81612d6b565b82525050565b61283d81612d6b565b82525050565b600061284f828561262d565b915061285b828461262d565b91508190509392505050565b600060208201905061287c600083018461253f565b92915050565b6000606082019050612897600083018661253f565b6128a4602083018561253f565b6128b16040830184612834565b949350505050565b60006080820190506128ce600083018761253f565b6128db602083018661253f565b6128e86040830185612834565b81810360608301526128fa81846125bb565b905095945050505050565b600060408201905061291a600083018561253f565b6129276020830184612834565b9392505050565b60006020820190508181036000830152612948818461254e565b905092915050565b600060208201905061296560008301846125ac565b92915050565b6000602082019050818103600083015261298581846125f4565b905092915050565b600060208201905081810360008301526129a68161265e565b9050919050565b600060208201905081810360008301526129c681612681565b9050919050565b600060208201905081810360008301526129e6816126a4565b9050919050565b60006020820190508181036000830152612a06816126c7565b9050919050565b60006020820190508181036000830152612a26816126ea565b9050919050565b60006020820190508181036000830152612a468161270d565b9050919050565b60006020820190508181036000830152612a6681612730565b9050919050565b60006020820190508181036000830152612a8681612753565b9050919050565b60006020820190508181036000830152612aa681612776565b9050919050565b60006020820190508181036000830152612ac681612799565b9050919050565b60006020820190508181036000830152612ae6816127bc565b9050919050565b60006020820190508181036000830152612b06816127df565b9050919050565b60006020820190508181036000830152612b2681612802565b9050919050565b6000602082019050612b426000830184612834565b92915050565b6000612b52612b63565b9050612b5e8282612de9565b919050565b6000604051905090565b600067ffffffffffffffff821115612b8857612b87612ec1565b5b602082029050602081019050919050565b600067ffffffffffffffff821115612bb457612bb3612ec1565b5b612bbd82612ef0565b9050602081019050919050565b600067ffffffffffffffff821115612be557612be4612ec1565b5b612bee82612ef0565b9050602081019050919050565b6000819050602082019050919050565b600081519050919050565b600081519050919050565b600081519050919050565b6000602082019050919050565b600082825260208201905092915050565b600082825260208201905092915050565b600082825260208201905092915050565b600081905092915050565b6000612c8282612d6b565b9150612c8d83612d6b565b9250827fffffffffffffffffffffffffffffffffffffffffffffffffffffffffffffffff03821115612cc257612cc1612e63565b5b828201905092915050565b6000612cd882612d6b565b9150612ce383612d6b565b925082821015612cf657612cf5612e63565b5b828203905092915050565b6000612d0c82612d4b565b9050919050565b60008115159050919050565b60007fffffffff0000000000000000000000000000000000000000000000000000000082169050919050565b600073ffffffffffffffffffffffffffffffffffffffff82169050919050565b6000819050919050565b82818337600083830152505050565b60005b83811015612da2578082015181840152602081019050612d87565b83811115612db1576000848401525b50505050565b60006002820490506001821680612dcf57607f821691505b60208210811415612de357612de2612e92565b5b50919050565b612df282612ef0565b810181811067ffffffffffffffff82111715612e1157612e10612ec1565b5b80604052505050565b6000612e2582612d6b565b91507fffffffffffffffffffffffffffffffffffffffffffffffffffffffffffffffff821415612e5857612e57612e63565b5b600182019050919050565b7f4e487b7100000000000000000000000000000000000000000000000000000000600052601160045260246000fd5b7f4e487b7100000000000000000000000000000000000000000000000000000000600052602260045260246000fd5b7f4e487b7100000000000000000000000000000000000000000000000000000000600052604160045260246000fd5b6000601f19601f8301169050919050565b7f4552433732313a2063616c6c6572206973206e6f7420746f6b656e206f776e6560008201527f72206f7220617070726f76656400000000000000000000000000000000000000602082015250565b7f4552433732313a207472616e7366657220746f206e6f6e20455243373231526560008201527f63656976657220696d706c656d656e7465720000000000000000000000000000602082015250565b7f4552433732313a207472616e736665722066726f6d20696e636f72726563742060008201527f6f776e6572000000000000000000000000000000000000000000000000000000602082015250565b7f4552433732313a20746f6b656e20616c7265616479206d696e74656400000000600082015250565b7f4552433732313a207472616e7366657220746f20746865207a65726f2061646460008201527f7265737300000000000000000000000000000000000000000000000000000000602082015250565b7f4552433732313a20617070726f766520746f2063616c6c657200000000000000600082015250565b7f4552433732313a2061646472657373207a65726f206973206e6f74206120766160008201527f6c6964206f776e65720000000000000000000000000000000000000000000000602082015250565b7f45524337323155524953746f726167653a2055524920736574206f66206e6f6e60008201527f6578697374656e7420746f6b656e000000000000000000000000000000000000602082015250565b7f4552433732313a206d696e7420746f20746865207a65726f2061646472657373600082015250565b7f4552433732313a20696e76616c696420746f6b656e2049440000000000000000600082015250565b7f4552433732313a20617070726f76616c20746f2063757272656e74206f776e6560008201527f7200000000000000000000000000000000000000000000000000000000000000602082015250565b7f4552433732313a20617070726f76652063616c6c6572206973206e6f7420746f60008201527f6b656e206f776e6572206f7220617070726f76656420666f7220616c6c000000602082015250565b7f4552433732313a207472616e736665722063616c6c6572206973206e6f74206f60008201527f776e6572206e6f7220617070726f766564000000000000000000000000000000602082015250565b61327581612d01565b811461328057600080fd5b50565b61328c81612d13565b811461329757600080fd5b50565b6132a381612d1f565b81146132ae57600080fd5b50565b6132ba81612d6b565b81146132c557600080fd5b5056fea26469706673582212205dd62e8f0c89b4cdcb5c688d660e01c4d408bd55759ec1225583c183260a001964736f6c63430008040033",
  "linkReferences": {},
  "deployedLinkReferences": {}
}