{
  "_format": "hh-sol-artifact-1",
  "contractName": "Trustified",
  "sourceName": "contracts/Trustified.sol",
  "abi": [
    {
      "inputs": [],
      "stateMutability": "nonpayable",
      "type": "constructor"
    },
    {
      "anonymous": false,
      "inputs": [
        {
          "indexed": true,
          "internalType": "address",
          "name": "owner",
          "type": "address"
        },
        {
          "indexed": true,
          "internalType": "address",
          "name": "approved",
          "type": "address"
        },
        {
          "indexed": true,
          "internalType": "uint256",
          "name": "tokenId",
          "type": "uint256"
        }
      ],
      "name": "Approval",
      "type": "event"
    },
    {
      "anonymous": false,
      "inputs": [
        {
          "indexed": true,
          "internalType": "address",
          "name": "owner",
          "type": "address"
        },
        {
          "indexed": true,
          "internalType": "address",
          "name": "operator",
          "type": "address"
        },
        {
          "indexed": false,
          "internalType": "bool",
          "name": "approved",
          "type": "bool"
        }
      ],
      "name": "ApprovalForAll",
      "type": "event"
    },
    {
      "anonymous": false,
      "inputs": [
        {
          "indexed": false,
          "internalType": "address",
          "name": "",
          "type": "address"
        },
        {
          "indexed": false,
          "internalType": "uint256",
          "name": "",
          "type": "uint256"
        }
      ],
      "name": "TokenMinted",
      "type": "event"
    },
    {
      "anonymous": false,
      "inputs": [
        {
          "indexed": false,
          "internalType": "address",
          "name": "",
          "type": "address"
        },
        {
          "indexed": false,
          "internalType": "address",
          "name": "",
          "type": "address"
        },
        {
          "indexed": false,
          "internalType": "uint256",
          "name": "",
          "type": "uint256"
        }
      ],
      "name": "TokenTransfered",
      "type": "event"
    },
    {
      "anonymous": false,
      "inputs": [
        {
          "indexed": true,
          "internalType": "address",
          "name": "from",
          "type": "address"
        },
        {
          "indexed": true,
          "internalType": "address",
          "name": "to",
          "type": "address"
        },
        {
          "indexed": true,
          "internalType": "uint256",
          "name": "tokenId",
          "type": "uint256"
        }
      ],
      "name": "Transfer",
      "type": "event"
    },
    {
      "inputs": [
        {
          "internalType": "address",
          "name": "to",
          "type": "address"
        },
        {
          "internalType": "uint256",
          "name": "tokenId",
          "type": "uint256"
        }
      ],
      "name": "approve",
      "outputs": [],
      "stateMutability": "nonpayable",
      "type": "function"
    },
    {
      "inputs": [
        {
          "internalType": "address",
          "name": "owner",
          "type": "address"
        }
      ],
      "name": "balanceOf",
      "outputs": [
        {
          "internalType": "uint256",
          "name": "",
          "type": "uint256"
        }
      ],
      "stateMutability": "view",
      "type": "function"
    },
    {
      "inputs": [
        {
          "internalType": "string",
          "name": "tokenUri",
          "type": "string"
        },
        {
          "internalType": "uint256",
          "name": "quantity",
          "type": "uint256"
        }
      ],
      "name": "bulkMintBadgesERC721",
      "outputs": [],
      "stateMutability": "nonpayable",
      "type": "function"
    },
    {
      "inputs": [
        {
          "internalType": "string[]",
          "name": "tokenUris",
          "type": "string[]"
        }
      ],
      "name": "bulkMintERC721",
      "outputs": [],
      "stateMutability": "nonpayable",
      "type": "function"
    },
    {
      "inputs": [
        {
          "internalType": "uint256",
          "name": "tokenId",
          "type": "uint256"
        }
      ],
      "name": "getApproved",
      "outputs": [
        {
          "internalType": "address",
          "name": "",
          "type": "address"
        }
      ],
      "stateMutability": "view",
      "type": "function"
    },
    {
      "inputs": [
        {
          "internalType": "uint256",
          "name": "eventId",
          "type": "uint256"
        }
      ],
      "name": "getTokenIds",
      "outputs": [
        {
          "internalType": "uint256[]",
          "name": "",
          "type": "uint256[]"
        }
      ],
      "stateMutability": "view",
      "type": "function"
    },
    {
      "inputs": [
        {
          "internalType": "address",
          "name": "owner",
          "type": "address"
        },
        {
          "internalType": "address",
          "name": "operator",
          "type": "address"
        }
      ],
      "name": "isApprovedForAll",
      "outputs": [
        {
          "internalType": "bool",
          "name": "",
          "type": "bool"
        }
      ],
      "stateMutability": "view",
      "type": "function"
    },
    {
      "inputs": [],
      "name": "name",
      "outputs": [
        {
          "internalType": "string",
          "name": "",
          "type": "string"
        }
      ],
      "stateMutability": "view",
      "type": "function"
    },
    {
      "inputs": [
        {
          "internalType": "uint256",
          "name": "tokenId",
          "type": "uint256"
        }
      ],
      "name": "ownerOf",
      "outputs": [
        {
          "internalType": "address",
          "name": "",
          "type": "address"
        }
      ],
      "stateMutability": "view",
      "type": "function"
    },
    {
      "inputs": [
        {
          "internalType": "string",
          "name": "tokenURI",
          "type": "string"
        }
      ],
      "name": "safeMint",
      "outputs": [
        {
          "internalType": "uint256",
          "name": "",
          "type": "uint256"
        }
      ],
      "stateMutability": "nonpayable",
      "type": "function"
    },
    {
      "inputs": [
        {
          "internalType": "address",
          "name": "from",
          "type": "address"
        },
        {
          "internalType": "address",
          "name": "to",
          "type": "address"
        },
        {
          "internalType": "uint256",
          "name": "tokenId",
          "type": "uint256"
        }
      ],
      "name": "safeTransferFrom",
      "outputs": [],
      "stateMutability": "nonpayable",
      "type": "function"
    },
    {
      "inputs": [
        {
          "internalType": "address",
          "name": "from",
          "type": "address"
        },
        {
          "internalType": "address",
          "name": "to",
          "type": "address"
        },
        {
          "internalType": "uint256",
          "name": "tokenId",
          "type": "uint256"
        },
        {
          "internalType": "bytes",
          "name": "data",
          "type": "bytes"
        }
      ],
      "name": "safeTransferFrom",
      "outputs": [],
      "stateMutability": "nonpayable",
      "type": "function"
    },
    {
      "inputs": [
        {
          "internalType": "address",
          "name": "operator",
          "type": "address"
        },
        {
          "internalType": "bool",
          "name": "approved",
          "type": "bool"
        }
      ],
      "name": "setApprovalForAll",
      "outputs": [],
      "stateMutability": "nonpayable",
      "type": "function"
    },
    {
      "inputs": [
        {
          "internalType": "bytes4",
          "name": "interfaceId",
          "type": "bytes4"
        }
      ],
      "name": "supportsInterface",
      "outputs": [
        {
          "internalType": "bool",
          "name": "",
          "type": "bool"
        }
      ],
      "stateMutability": "view",
      "type": "function"
    },
    {
      "inputs": [],
      "name": "symbol",
      "outputs": [
        {
          "internalType": "string",
          "name": "",
          "type": "string"
        }
      ],
      "stateMutability": "view",
      "type": "function"
    },
    {
      "inputs": [
        {
          "internalType": "uint256",
          "name": "",
          "type": "uint256"
        },
        {
          "internalType": "uint256",
          "name": "",
          "type": "uint256"
        }
      ],
      "name": "tokenIds",
      "outputs": [
        {
          "internalType": "uint256",
          "name": "",
          "type": "uint256"
        }
      ],
      "stateMutability": "view",
      "type": "function"
    },
    {
      "inputs": [
        {
          "internalType": "uint256",
          "name": "tokenId",
          "type": "uint256"
        }
      ],
      "name": "tokenURI",
      "outputs": [
        {
          "internalType": "string",
          "name": "",
          "type": "string"
        }
      ],
      "stateMutability": "view",
      "type": "function"
    },
    {
      "inputs": [
        {
          "internalType": "address",
          "name": "from",
          "type": "address"
        },
        {
          "internalType": "address",
          "name": "to",
          "type": "address"
        },
        {
          "internalType": "uint256",
          "name": "tokenId",
          "type": "uint256"
        }
      ],
      "name": "transferFrom",
      "outputs": [],
      "stateMutability": "nonpayable",
      "type": "function"
    },
    {
      "inputs": [
        {
          "internalType": "address",
          "name": "from",
          "type": "address"
        },
        {
          "internalType": "address",
          "name": "to",
          "type": "address"
        },
        {
          "internalType": "uint256",
          "name": "tokenId",
          "type": "uint256"
        }
      ],
      "name": "transferToken",
      "outputs": [],
      "stateMutability": "nonpayable",
      "type": "function"
    }
  ],
  "bytecode": "0x60806040523480156200001157600080fd5b506040518060400160405280600a81526020017f54727573746966696564000000000000000000000000000000000000000000008152506040518060400160405280600381526020017f54464e0000000000000000000000000000000000000000000000000000000000815250816000908051906020019062000096929190620000b8565b508060019080519060200190620000af929190620000b8565b505050620001cd565b828054620000c69062000168565b90600052602060002090601f016020900481019282620000ea576000855562000136565b82601f106200010557805160ff191683800117855562000136565b8280016001018555821562000136579182015b828111156200013557825182559160200191906001019062000118565b5b50905062000145919062000149565b5090565b5b80821115620001645760008160009055506001016200014a565b5090565b600060028204905060018216806200018157607f821691505b602082108114156200019857620001976200019e565b5b50919050565b7f4e487b7100000000000000000000000000000000000000000000000000000000600052602260045260246000fd5b6132c180620001dd6000396000f3fe608060405234801561001057600080fd5b50600436106101215760003560e01c806370a08231116100ad578063c87b56dd11610071578063c87b56dd1461032a578063d4d94b051461035a578063e985e9c514610376578063eed8cc35146103a6578063f5537ede146103d657610121565b806370a082311461028857806389f1aa39146102b857806395d89b41146102d4578063a22cb465146102f2578063b88d4fde1461030e57610121565b806323b872dd116100f457806323b872dd146101c057806342842e0e146101dc57806357991d30146101f85780636352211e14610228578063695850fb1461025857610121565b806301ffc9a71461012657806306fdde0314610156578063081812fc14610174578063095ea7b3146101a4575b600080fd5b610140600480360381019061013b919061239e565b6103f2565b60405161014d9190612913565b60405180910390f35b61015e6104d4565b60405161016b919061292e565b60405180910390f35b61018e60048036038101906101899190612485565b610566565b60405161019b919061282a565b60405180910390f35b6101be60048036038101906101b99190612321565b6105ac565b005b6101da60048036038101906101d5919061221b565b6106c4565b005b6101f660048036038101906101f1919061221b565b61071d565b005b610212600480360381019061020d9190612485565b61073d565b60405161021f91906128f1565b60405180910390f35b610242600480360381019061023d9190612485565b6107a8565b60405161024f919061282a565b60405180910390f35b610272600480360381019061026d91906123f0565b61082f565b60405161027f9190612af0565b60405180910390f35b6102a2600480360381019061029d91906121b6565b610865565b6040516102af9190612af0565b60405180910390f35b6102d260048036038101906102cd919061235d565b61091d565b005b6102dc610a1a565b6040516102e9919061292e565b60405180910390f35b61030c600480360381019061030791906122e5565b610aac565b005b6103286004803603810190610323919061226a565b610ac2565b005b610344600480360381019061033f9190612485565b610b24565b604051610351919061292e565b60405180910390f35b610374600480360381019061036f9190612431565b610c37565b005b610390600480360381019061038b91906121df565b610cf4565b60405161039d9190612913565b60405180910390f35b6103c060048036038101906103bb91906124ae565b610d88565b6040516103cd9190612af0565b60405180910390f35b6103f060048036038101906103eb919061221b565b610db9565b005b60007f80ac58cd000000000000000000000000000000000000000000000000000000007bffffffffffffffffffffffffffffffffffffffffffffffffffffffff1916827bffffffffffffffffffffffffffffffffffffffffffffffffffffffff191614806104bd57507f5b5e139f000000000000000000000000000000000000000000000000000000007bffffffffffffffffffffffffffffffffffffffffffffffffffffffff1916827bffffffffffffffffffffffffffffffffffffffffffffffffffffffff1916145b806104cd57506104cc82610e68565b5b9050919050565b6060600080546104e390612d7a565b80601f016020809104026020016040519081016040528092919081815260200182805461050f90612d7a565b801561055c5780601f106105315761010080835404028352916020019161055c565b820191906000526020600020905b81548152906001019060200180831161053f57829003601f168201915b5050505050905090565b600061057182610ed2565b6004600083815260200190815260200160002060009054906101000a900473ffffffffffffffffffffffffffffffffffffffff169050919050565b60006105b7826107a8565b90508073ffffffffffffffffffffffffffffffffffffffff168373ffffffffffffffffffffffffffffffffffffffff161415610628576040517f08c379a000000000000000000000000000000000000000000000000000000000815260040161061f90612a90565b60405180910390fd5b8073ffffffffffffffffffffffffffffffffffffffff16610647610f1d565b73ffffffffffffffffffffffffffffffffffffffff161480610676575061067581610670610f1d565b610cf4565b5b6106b5576040517f08c379a00000000000000000000000000000000000000000000000000000000081526004016106ac90612ab0565b60405180910390fd5b6106bf8383610f25565b505050565b6106ce8382610fde565b61070d576040517f08c379a000000000000000000000000000000000000000000000000000000000815260040161070490612ad0565b60405180910390fd5b610718838383611073565b505050565b61073883838360405180602001604052806000815250610ac2565b505050565b60606009600083815260200190815260200160002080548060200260200160405190810160405280929190818152602001828054801561079c57602002820191906000526020600020905b815481526020019060010190808311610788575b50505050509050919050565b6000806107b48361136d565b9050600073ffffffffffffffffffffffffffffffffffffffff168173ffffffffffffffffffffffffffffffffffffffff161415610826576040517f08c379a000000000000000000000000000000000000000000000000000000000815260040161081d90612a70565b60405180910390fd5b80915050919050565b60008061083c60076113aa565b905061084860076113b8565b61085230826113ce565b61085c81846115ec565b80915050919050565b60008073ffffffffffffffffffffffffffffffffffffffff168273ffffffffffffffffffffffffffffffffffffffff1614156108d6576040517f08c379a00000000000000000000000000000000000000000000000000000000081526004016108cd90612a10565b60405180910390fd5b600360008373ffffffffffffffffffffffffffffffffffffffff1673ffffffffffffffffffffffffffffffffffffffff168152602001908152602001600020549050919050565b600061092960086113aa565b905061093560086113b8565b60005b82518110156109dc57600061098c84838151811061097f577f4e487b7100000000000000000000000000000000000000000000000000000000600052603260045260246000fd5b602002602001015161082f565b9050600960008481526020019081526020016000208190806001815401808255809150506001900390600052602060002001600090919091909150555080806109d490612ddd565b915050610938565b507fb9144c96c86541f6fa89c9f2f02495cccf4b08cd6643e26d34ee00aa586558a83382604051610a0e9291906128c8565b60405180910390a15050565b606060018054610a2990612d7a565b80601f0160208091040260200160405190810160405280929190818152602001828054610a5590612d7a565b8015610aa25780601f10610a7757610100808354040283529160200191610aa2565b820191906000526020600020905b815481529060010190602001808311610a8557829003601f168201915b5050505050905090565b610abe610ab7610f1d565b8383611660565b5050565b610ad3610acd610f1d565b83610fde565b610b12576040517f08c379a0000000000000000000000000000000000000000000000000000000008152600401610b0990612950565b60405180910390fd5b610b1e848484846117cd565b50505050565b6060610b2f82610ed2565b6000600660008481526020019081526020016000208054610b4f90612d7a565b80601f0160208091040260200160405190810160405280929190818152602001828054610b7b90612d7a565b8015610bc85780601f10610b9d57610100808354040283529160200191610bc8565b820191906000526020600020905b815481529060010190602001808311610bab57829003601f168201915b505050505090506000610bd9611829565b9050600081511415610bef578192505050610c32565b600082511115610c24578082604051602001610c0c929190612806565b60405160208183030381529060405292505050610c32565b610c2d84611840565b925050505b919050565b6000610c4360086113aa565b9050610c4f60086113b8565b60005b82811015610cb5576000610c658561082f565b905060096000848152602001908152602001600020819080600181540180825580915050600190039060005260206000200160009091909190915055508080610cad90612ddd565b915050610c52565b507fb9144c96c86541f6fa89c9f2f02495cccf4b08cd6643e26d34ee00aa586558a83382604051610ce79291906128c8565b60405180910390a1505050565b6000600560008473ffffffffffffffffffffffffffffffffffffffff1673ffffffffffffffffffffffffffffffffffffffff16815260200190815260200160002060008373ffffffffffffffffffffffffffffffffffffffff1673ffffffffffffffffffffffffffffffffffffffff16815260200190815260200160002060009054906101000a900460ff16905092915050565b60096020528160005260406000208181548110610da457600080fd5b90600052602060002001600091509150505481565b3073ffffffffffffffffffffffffffffffffffffffff166323b872dd8484846040518463ffffffff1660e01b8152600401610df693929190612845565b600060405180830381600087803b158015610e1057600080fd5b505af1158015610e24573d6000803e3d6000fd5b505050507fec61728879a33aa50b55e1f4789dcfc1c680f30a24d7b8694a9f874e242a97b4838383604051610e5b93929190612845565b60405180910390a1505050565b60007f01ffc9a7000000000000000000000000000000000000000000000000000000007bffffffffffffffffffffffffffffffffffffffffffffffffffffffff1916827bffffffffffffffffffffffffffffffffffffffffffffffffffffffff1916149050919050565b610edb816118a8565b610f1a576040517f08c379a0000000000000000000000000000000000000000000000000000000008152600401610f1190612a70565b60405180910390fd5b50565b600033905090565b816004600083815260200190815260200160002060006101000a81548173ffffffffffffffffffffffffffffffffffffffff021916908373ffffffffffffffffffffffffffffffffffffffff160217905550808273ffffffffffffffffffffffffffffffffffffffff16610f98836107a8565b73ffffffffffffffffffffffffffffffffffffffff167f8c5be1e5ebec7d5bd14f71427d1e84f3dd0314c0f7b2291e5b200ac8c7c3b92560405160405180910390a45050565b600080610fea836107a8565b90508073ffffffffffffffffffffffffffffffffffffffff168473ffffffffffffffffffffffffffffffffffffffff16148061102c575061102b8185610cf4565b5b8061106a57508373ffffffffffffffffffffffffffffffffffffffff1661105284610566565b73ffffffffffffffffffffffffffffffffffffffff16145b91505092915050565b8273ffffffffffffffffffffffffffffffffffffffff16611093826107a8565b73ffffffffffffffffffffffffffffffffffffffff16146110e9576040517f08c379a00000000000000000000000000000000000000000000000000000000081526004016110e090612990565b60405180910390fd5b600073ffffffffffffffffffffffffffffffffffffffff168273ffffffffffffffffffffffffffffffffffffffff161415611159576040517f08c379a0000000000000000000000000000000000000000000000000000000008152600401611150906129d0565b60405180910390fd5b61116683838360016118e9565b8273ffffffffffffffffffffffffffffffffffffffff16611186826107a8565b73ffffffffffffffffffffffffffffffffffffffff16146111dc576040517f08c379a00000000000000000000000000000000000000000000000000000000081526004016111d390612990565b60405180910390fd5b6004600082815260200190815260200160002060006101000a81549073ffffffffffffffffffffffffffffffffffffffff02191690556001600360008573ffffffffffffffffffffffffffffffffffffffff1673ffffffffffffffffffffffffffffffffffffffff168152602001908152602001600020600082825403925050819055506001600360008473ffffffffffffffffffffffffffffffffffffffff1673ffffffffffffffffffffffffffffffffffffffff16815260200190815260200160002060008282540192505081905550816002600083815260200190815260200160002060006101000a81548173ffffffffffffffffffffffffffffffffffffffff021916908373ffffffffffffffffffffffffffffffffffffffff160217905550808273ffffffffffffffffffffffffffffffffffffffff168473ffffffffffffffffffffffffffffffffffffffff167fddf252ad1be2c89b69c2b068fc378daa952ba7f163c4a11628f55a4df523b3ef60405160405180910390a46113688383836001611a0f565b505050565b60006002600083815260200190815260200160002060009054906101000a900473ffffffffffffffffffffffffffffffffffffffff169050919050565b600081600001549050919050565b6001816000016000828254019250508190555050565b600073ffffffffffffffffffffffffffffffffffffffff168273ffffffffffffffffffffffffffffffffffffffff16141561143e576040517f08c379a000000000000000000000000000000000000000000000000000000000815260040161143590612a50565b60405180910390fd5b611447816118a8565b15611487576040517f08c379a000000000000000000000000000000000000000000000000000000000815260040161147e906129b0565b60405180910390fd5b6114956000838360016118e9565b61149e816118a8565b156114de576040517f08c379a00000000000000000000000000000000000000000000000000000000081526004016114d5906129b0565b60405180910390fd5b6001600360008473ffffffffffffffffffffffffffffffffffffffff1673ffffffffffffffffffffffffffffffffffffffff16815260200190815260200160002060008282540192505081905550816002600083815260200190815260200160002060006101000a81548173ffffffffffffffffffffffffffffffffffffffff021916908373ffffffffffffffffffffffffffffffffffffffff160217905550808273ffffffffffffffffffffffffffffffffffffffff16600073ffffffffffffffffffffffffffffffffffffffff167fddf252ad1be2c89b69c2b068fc378daa952ba7f163c4a11628f55a4df523b3ef60405160405180910390a46115e8600083836001611a0f565b5050565b6115f5826118a8565b611634576040517f08c379a000000000000000000000000000000000000000000000000000000000815260040161162b90612a30565b60405180910390fd5b8060066000848152602001908152602001600020908051906020019061165b929190611f2a565b505050565b8173ffffffffffffffffffffffffffffffffffffffff168373ffffffffffffffffffffffffffffffffffffffff1614156116cf576040517f08c379a00000000000000000000000000000000000000000000000000000000081526004016116c6906129f0565b60405180910390fd5b80600560008573ffffffffffffffffffffffffffffffffffffffff1673ffffffffffffffffffffffffffffffffffffffff16815260200190815260200160002060008473ffffffffffffffffffffffffffffffffffffffff1673ffffffffffffffffffffffffffffffffffffffff16815260200190815260200160002060006101000a81548160ff0219169083151502179055508173ffffffffffffffffffffffffffffffffffffffff168373ffffffffffffffffffffffffffffffffffffffff167f17307eab39ab6107e8899845ad3d59bd9653f200f220920489ca2b5937696c31836040516117c09190612913565b60405180910390a3505050565b6117d8848484611073565b6117e484848484611a15565b611823576040517f08c379a000000000000000000000000000000000000000000000000000000000815260040161181a90612970565b60405180910390fd5b50505050565b606060405180602001604052806000815250905090565b606061184b82610ed2565b6000611855611829565b9050600081511161187557604051806020016040528060008152506118a0565b8061187f84611bac565b604051602001611890929190612806565b6040516020818303038152906040525b915050919050565b60008073ffffffffffffffffffffffffffffffffffffffff166118ca8361136d565b73ffffffffffffffffffffffffffffffffffffffff1614159050919050565b6001811115611a0957600073ffffffffffffffffffffffffffffffffffffffff168473ffffffffffffffffffffffffffffffffffffffff161461197d5780600360008673ffffffffffffffffffffffffffffffffffffffff1673ffffffffffffffffffffffffffffffffffffffff16815260200190815260200160002060008282546119759190612c90565b925050819055505b600073ffffffffffffffffffffffffffffffffffffffff168373ffffffffffffffffffffffffffffffffffffffff1614611a085780600360008573ffffffffffffffffffffffffffffffffffffffff1673ffffffffffffffffffffffffffffffffffffffff1681526020019081526020016000206000828254611a009190612c3a565b925050819055505b5b50505050565b50505050565b6000611a368473ffffffffffffffffffffffffffffffffffffffff16611cd0565b15611b9f578373ffffffffffffffffffffffffffffffffffffffff1663150b7a02611a5f610f1d565b8786866040518563ffffffff1660e01b8152600401611a81949392919061287c565b602060405180830381600087803b158015611a9b57600080fd5b505af1925050508015611acc57506040513d601f19601f82011682018060405250810190611ac991906123c7565b60015b611b4f573d8060008114611afc576040519150601f19603f3d011682016040523d82523d6000602084013e611b01565b606091505b50600081511415611b47576040517f08c379a0000000000000000000000000000000000000000000000000000000008152600401611b3e90612970565b60405180910390fd5b805181602001fd5b63150b7a0260e01b7bffffffffffffffffffffffffffffffffffffffffffffffffffffffff1916817bffffffffffffffffffffffffffffffffffffffffffffffffffffffff191614915050611ba4565b600190505b949350505050565b606060006001611bbb84611cf3565b01905060008167ffffffffffffffff811115611c00577f4e487b7100000000000000000000000000000000000000000000000000000000600052604160045260246000fd5b6040519080825280601f01601f191660200182016040528015611c325781602001600182028036833780820191505090505b509050600082602001820190505b600115611cc5578080600190039150507f3031323334353637383961626364656600000000000000000000000000000000600a86061a8153600a8581611caf577f4e487b7100000000000000000000000000000000000000000000000000000000600052601260045260246000fd5b0494506000851415611cc057611cc5565b611c40565b819350505050919050565b6000808273ffffffffffffffffffffffffffffffffffffffff163b119050919050565b600080600090507a184f03e93ff9f4daa797ed6e38ed64bf6a1f0100000000000000008310611d77577a184f03e93ff9f4daa797ed6e38ed64bf6a1f0100000000000000008381611d6d577f4e487b7100000000000000000000000000000000000000000000000000000000600052601260045260246000fd5b0492506040810190505b6d04ee2d6d415b85acef81000000008310611dda576d04ee2d6d415b85acef81000000008381611dd0577f4e487b7100000000000000000000000000000000000000000000000000000000600052601260045260246000fd5b0492506020810190505b662386f26fc100008310611e2f57662386f26fc100008381611e25577f4e487b7100000000000000000000000000000000000000000000000000000000600052601260045260246000fd5b0492506010810190505b6305f5e1008310611e7e576305f5e1008381611e74577f4e487b7100000000000000000000000000000000000000000000000000000000600052601260045260246000fd5b0492506008810190505b6127108310611ec9576127108381611ebf577f4e487b7100000000000000000000000000000000000000000000000000000000600052601260045260246000fd5b0492506004810190505b60648310611f125760648381611f08577f4e487b7100000000000000000000000000000000000000000000000000000000600052601260045260246000fd5b0492506002810190505b600a8310611f21576001810190505b80915050919050565b828054611f3690612d7a565b90600052602060002090601f016020900481019282611f585760008555611f9f565b82601f10611f7157805160ff1916838001178555611f9f565b82800160010185558215611f9f579182015b82811115611f9e578251825591602001919060010190611f83565b5b509050611fac9190611fb0565b5090565b5b80821115611fc9576000816000905550600101611fb1565b5090565b6000611fe0611fdb84612b30565b612b0b565b90508083825260208201905082856020860282011115611fff57600080fd5b60005b8581101561204957813567ffffffffffffffff81111561202157600080fd5b80860161202e8982612177565b85526020850194506020840193505050600181019050612002565b5050509392505050565b600061206661206184612b5c565b612b0b565b90508281526020810184848401111561207e57600080fd5b612089848285612d38565b509392505050565b60006120a461209f84612b8d565b612b0b565b9050828152602081018484840111156120bc57600080fd5b6120c7848285612d38565b509392505050565b6000813590506120de8161322f565b92915050565b600082601f8301126120f557600080fd5b8135612105848260208601611fcd565b91505092915050565b60008135905061211d81613246565b92915050565b6000813590506121328161325d565b92915050565b6000815190506121478161325d565b92915050565b600082601f83011261215e57600080fd5b813561216e848260208601612053565b91505092915050565b600082601f83011261218857600080fd5b8135612198848260208601612091565b91505092915050565b6000813590506121b081613274565b92915050565b6000602082840312156121c857600080fd5b60006121d6848285016120cf565b91505092915050565b600080604083850312156121f257600080fd5b6000612200858286016120cf565b9250506020612211858286016120cf565b9150509250929050565b60008060006060848603121561223057600080fd5b600061223e868287016120cf565b935050602061224f868287016120cf565b9250506040612260868287016121a1565b9150509250925092565b6000806000806080858703121561228057600080fd5b600061228e878288016120cf565b945050602061229f878288016120cf565b93505060406122b0878288016121a1565b925050606085013567ffffffffffffffff8111156122cd57600080fd5b6122d98782880161214d565b91505092959194509250565b600080604083850312156122f857600080fd5b6000612306858286016120cf565b92505060206123178582860161210e565b9150509250929050565b6000806040838503121561233457600080fd5b6000612342858286016120cf565b9250506020612353858286016121a1565b9150509250929050565b60006020828403121561236f57600080fd5b600082013567ffffffffffffffff81111561238957600080fd5b612395848285016120e4565b91505092915050565b6000602082840312156123b057600080fd5b60006123be84828501612123565b91505092915050565b6000602082840312156123d957600080fd5b60006123e784828501612138565b91505092915050565b60006020828403121561240257600080fd5b600082013567ffffffffffffffff81111561241c57600080fd5b61242884828501612177565b91505092915050565b6000806040838503121561244457600080fd5b600083013567ffffffffffffffff81111561245e57600080fd5b61246a85828601612177565b925050602061247b858286016121a1565b9150509250929050565b60006020828403121561249757600080fd5b60006124a5848285016121a1565b91505092915050565b600080604083850312156124c157600080fd5b60006124cf858286016121a1565b92505060206124e0858286016121a1565b9150509250929050565b60006124f683836127e8565b60208301905092915050565b61250b81612cc4565b82525050565b600061251c82612bce565b6125268185612bfc565b935061253183612bbe565b8060005b8381101561256257815161254988826124ea565b975061255483612bef565b925050600181019050612535565b5085935050505092915050565b61257881612cd6565b82525050565b600061258982612bd9565b6125938185612c0d565b93506125a3818560208601612d47565b6125ac81612eb3565b840191505092915050565b60006125c282612be4565b6125cc8185612c1e565b93506125dc818560208601612d47565b6125e581612eb3565b840191505092915050565b60006125fb82612be4565b6126058185612c2f565b9350612615818560208601612d47565b80840191505092915050565b600061262e602d83612c1e565b915061263982612ec4565b604082019050919050565b6000612651603283612c1e565b915061265c82612f13565b604082019050919050565b6000612674602583612c1e565b915061267f82612f62565b604082019050919050565b6000612697601c83612c1e565b91506126a282612fb1565b602082019050919050565b60006126ba602483612c1e565b91506126c582612fda565b604082019050919050565b60006126dd601983612c1e565b91506126e882613029565b602082019050919050565b6000612700602983612c1e565b915061270b82613052565b604082019050919050565b6000612723602e83612c1e565b915061272e826130a1565b604082019050919050565b6000612746602083612c1e565b9150612751826130f0565b602082019050919050565b6000612769601883612c1e565b915061277482613119565b602082019050919050565b600061278c602183612c1e565b915061279782613142565b604082019050919050565b60006127af603d83612c1e565b91506127ba82613191565b604082019050919050565b60006127d2603183612c1e565b91506127dd826131e0565b604082019050919050565b6127f181612d2e565b82525050565b61280081612d2e565b82525050565b600061281282856125f0565b915061281e82846125f0565b91508190509392505050565b600060208201905061283f6000830184612502565b92915050565b600060608201905061285a6000830186612502565b6128676020830185612502565b61287460408301846127f7565b949350505050565b60006080820190506128916000830187612502565b61289e6020830186612502565b6128ab60408301856127f7565b81810360608301526128bd818461257e565b905095945050505050565b60006040820190506128dd6000830185612502565b6128ea60208301846127f7565b9392505050565b6000602082019050818103600083015261290b8184612511565b905092915050565b6000602082019050612928600083018461256f565b92915050565b6000602082019050818103600083015261294881846125b7565b905092915050565b6000602082019050818103600083015261296981612621565b9050919050565b6000602082019050818103600083015261298981612644565b9050919050565b600060208201905081810360008301526129a981612667565b9050919050565b600060208201905081810360008301526129c98161268a565b9050919050565b600060208201905081810360008301526129e9816126ad565b9050919050565b60006020820190508181036000830152612a09816126d0565b9050919050565b60006020820190508181036000830152612a29816126f3565b9050919050565b60006020820190508181036000830152612a4981612716565b9050919050565b60006020820190508181036000830152612a6981612739565b9050919050565b60006020820190508181036000830152612a898161275c565b9050919050565b60006020820190508181036000830152612aa98161277f565b9050919050565b60006020820190508181036000830152612ac9816127a2565b9050919050565b60006020820190508181036000830152612ae9816127c5565b9050919050565b6000602082019050612b0560008301846127f7565b92915050565b6000612b15612b26565b9050612b218282612dac565b919050565b6000604051905090565b600067ffffffffffffffff821115612b4b57612b4a612e84565b5b602082029050602081019050919050565b600067ffffffffffffffff821115612b7757612b76612e84565b5b612b8082612eb3565b9050602081019050919050565b600067ffffffffffffffff821115612ba857612ba7612e84565b5b612bb182612eb3565b9050602081019050919050565b6000819050602082019050919050565b600081519050919050565b600081519050919050565b600081519050919050565b6000602082019050919050565b600082825260208201905092915050565b600082825260208201905092915050565b600082825260208201905092915050565b600081905092915050565b6000612c4582612d2e565b9150612c5083612d2e565b9250827fffffffffffffffffffffffffffffffffffffffffffffffffffffffffffffffff03821115612c8557612c84612e26565b5b828201905092915050565b6000612c9b82612d2e565b9150612ca683612d2e565b925082821015612cb957612cb8612e26565b5b828203905092915050565b6000612ccf82612d0e565b9050919050565b60008115159050919050565b60007fffffffff0000000000000000000000000000000000000000000000000000000082169050919050565b600073ffffffffffffffffffffffffffffffffffffffff82169050919050565b6000819050919050565b82818337600083830152505050565b60005b83811015612d65578082015181840152602081019050612d4a565b83811115612d74576000848401525b50505050565b60006002820490506001821680612d9257607f821691505b60208210811415612da657612da5612e55565b5b50919050565b612db582612eb3565b810181811067ffffffffffffffff82111715612dd457612dd3612e84565b5b80604052505050565b6000612de882612d2e565b91507fffffffffffffffffffffffffffffffffffffffffffffffffffffffffffffffff821415612e1b57612e1a612e26565b5b600182019050919050565b7f4e487b7100000000000000000000000000000000000000000000000000000000600052601160045260246000fd5b7f4e487b7100000000000000000000000000000000000000000000000000000000600052602260045260246000fd5b7f4e487b7100000000000000000000000000000000000000000000000000000000600052604160045260246000fd5b6000601f19601f8301169050919050565b7f4552433732313a2063616c6c6572206973206e6f7420746f6b656e206f776e6560008201527f72206f7220617070726f76656400000000000000000000000000000000000000602082015250565b7f4552433732313a207472616e7366657220746f206e6f6e20455243373231526560008201527f63656976657220696d706c656d656e7465720000000000000000000000000000602082015250565b7f4552433732313a207472616e736665722066726f6d20696e636f72726563742060008201527f6f776e6572000000000000000000000000000000000000000000000000000000602082015250565b7f4552433732313a20746f6b656e20616c7265616479206d696e74656400000000600082015250565b7f4552433732313a207472616e7366657220746f20746865207a65726f2061646460008201527f7265737300000000000000000000000000000000000000000000000000000000602082015250565b7f4552433732313a20617070726f766520746f2063616c6c657200000000000000600082015250565b7f4552433732313a2061646472657373207a65726f206973206e6f74206120766160008201527f6c6964206f776e65720000000000000000000000000000000000000000000000602082015250565b7f45524337323155524953746f726167653a2055524920736574206f66206e6f6e60008201527f6578697374656e7420746f6b656e000000000000000000000000000000000000602082015250565b7f4552433732313a206d696e7420746f20746865207a65726f2061646472657373600082015250565b7f4552433732313a20696e76616c696420746f6b656e2049440000000000000000600082015250565b7f4552433732313a20617070726f76616c20746f2063757272656e74206f776e6560008201527f7200000000000000000000000000000000000000000000000000000000000000602082015250565b7f4552433732313a20617070726f76652063616c6c6572206973206e6f7420746f60008201527f6b656e206f776e6572206f7220617070726f76656420666f7220616c6c000000602082015250565b7f4552433732313a207472616e736665722063616c6c6572206973206e6f74206f60008201527f776e6572206e6f7220617070726f766564000000000000000000000000000000602082015250565b61323881612cc4565b811461324357600080fd5b50565b61324f81612cd6565b811461325a57600080fd5b50565b61326681612ce2565b811461327157600080fd5b50565b61327d81612d2e565b811461328857600080fd5b5056fea264697066735822122043de57df679e3d72ce34b73816d42afad19005985a7ab6fdb01b183754a61c2464736f6c63430008040033",
  "linkReferences": {},
  "deployedLinkReferences": {}
}