{
  "_format": "hh-sol-artifact-1",
  "contractName": "CredsProtocolRegistry",
  "sourceName": "@creds-protocol/contracts/base/CredsProtocolRegistry.sol",
  "abi": [
    {
      "inputs": [
        {
          "internalType": "address",
          "name": "",
          "type": "address"
        }
      ],
      "name": "isRegisteredIssuer",
      "outputs": [
        {
          "internalType": "bool",
          "name": "",
          "type": "bool"
        }
      ],
      "stateMutability": "view",
      "type": "function"
    },
    {
      "inputs": [
        {
          "internalType": "address",
          "name": "",
          "type": "address"
        },
        {
          "internalType": "uint256",
          "name": "",
          "type": "uint256"
        }
      ],
      "name": "issuerContractAddress",
      "outputs": [
        {
          "internalType": "address",
          "name": "",
          "type": "address"
        }
      ],
      "stateMutability": "view",
      "type": "function"
    },
    {
      "inputs": [
        {
          "internalType": "address",
          "name": "_issuer",
          "type": "address"
        },
        {
          "internalType": "address",
          "name": "_issuerContractAddress",
          "type": "address"
        }
      ],
      "name": "registerIssuer",
      "outputs": [],
      "stateMutability": "nonpayable",
      "type": "function"
    }
  ],
  "bytecode": "0x608060405234801561001057600080fd5b506103f5806100206000396000f3fe608060405234801561001057600080fd5b50600436106100415760003560e01c80632d33d7d5146100465780635a235e1314610076578063c2551c82146100a6575b600080fd5b610060600480360381019061005b9190610254565b6100c2565b60405161006d919061032e565b60405180910390f35b610090600480360381019061008b91906102b9565b6100e2565b60405161009d9190610313565b60405180910390f35b6100c060048036038101906100bb919061027d565b610130565b005b60016020528060005260406000206000915054906101000a900460ff1681565b600060205281600052604060002081815481106100fe57600080fd5b906000526020600020016000915091509054906101000a900473ffffffffffffffffffffffffffffffffffffffff1681565b6000808373ffffffffffffffffffffffffffffffffffffffff1673ffffffffffffffffffffffffffffffffffffffff168152602001908152602001600020819080600181540180825580915050600190039060005260206000200160009091909190916101000a81548173ffffffffffffffffffffffffffffffffffffffff021916908373ffffffffffffffffffffffffffffffffffffffff16021790555060018060008473ffffffffffffffffffffffffffffffffffffffff1673ffffffffffffffffffffffffffffffffffffffff16815260200190815260200160002060006101000a81548160ff0219169083151502179055505050565b60008135905061023981610391565b92915050565b60008135905061024e816103a8565b92915050565b60006020828403121561026657600080fd5b60006102748482850161022a565b91505092915050565b6000806040838503121561029057600080fd5b600061029e8582860161022a565b92505060206102af8582860161022a565b9150509250929050565b600080604083850312156102cc57600080fd5b60006102da8582860161022a565b92505060206102eb8582860161023f565b9150509250929050565b6102fe81610349565b82525050565b61030d8161035b565b82525050565b600060208201905061032860008301846102f5565b92915050565b60006020820190506103436000830184610304565b92915050565b600061035482610367565b9050919050565b60008115159050919050565b600073ffffffffffffffffffffffffffffffffffffffff82169050919050565b6000819050919050565b61039a81610349565b81146103a557600080fd5b50565b6103b181610387565b81146103bc57600080fd5b5056fea264697066735822122052edbf4a6bf8a6cfb163f85eddc2131eadb507f7d9e9a79e50128bfc5b984c2d64736f6c63430008040033",
  "linkReferences": {},
  "deployedLinkReferences": {}
}