{
  "_format": "hh-sol-artifact-1",
  "contractName": "CredsIssuer",
  "sourceName": "@creds-protocol/contracts/CredsIssuer.sol",
  "abi": [
    {
      "inputs": [
        {
          "components": [
            {
              "internalType": "address",
              "name": "contractAddress",
              "type": "address"
            },
            {
              "internalType": "uint256",
              "name": "merkleTreeDepth",
              "type": "uint256"
            }
          ],
          "internalType": "struct ICredential.Verifier[]",
          "name": "_verifiers",
          "type": "tuple[]"
        },
        {
          "internalType": "address",
          "name": "_issuer",
          "type": "address"
        },
        {
          "internalType": "string",
          "name": "_issuerName",
          "type": "string"
        },
        {
          "internalType": "string",
          "name": "_issuerSymbol",
          "type": "string"
        }
      ],
      "stateMutability": "nonpayable",
      "type": "constructor"
    },
    {
      "inputs": [],
      "name": "Credential__CallerIsNotTheCredIssuer",
      "type": "error"
    },
    {
      "inputs": [],
      "name": "Credential__CredAlreadyExists",
      "type": "error"
    },
    {
      "inputs": [],
      "name": "Credential__CredDoesNotExist",
      "type": "error"
    },
    {
      "inputs": [],
      "name": "Credential__CredIdIsNotLessThanSnarkScalarField",
      "type": "error"
    },
    {
      "inputs": [],
      "name": "Credential__MerkleTreeDepthIsNotSupported",
      "type": "error"
    },
    {
      "inputs": [],
      "name": "Credential__MerkleTreeRootIsExpired",
      "type": "error"
    },
    {
      "inputs": [],
      "name": "Credential__MerkleTreeRootIsNotPartOfTheCred",
      "type": "error"
    },
    {
      "inputs": [],
      "name": "Credential__YouAreUsingTheSameNillifierTwice",
      "type": "error"
    },
    {
      "anonymous": false,
      "inputs": [
        {
          "indexed": true,
          "internalType": "address",
          "name": "issuer",
          "type": "address"
        },
        {
          "indexed": true,
          "internalType": "uint256",
          "name": "credId",
          "type": "uint256"
        },
        {
          "indexed": false,
          "internalType": "uint256",
          "name": "merkleTreeDepth",
          "type": "uint256"
        },
        {
          "indexed": false,
          "internalType": "uint256",
          "name": "zeroValue",
          "type": "uint256"
        }
      ],
      "name": "CredCreated",
      "type": "event"
    },
    {
      "anonymous": false,
      "inputs": [
        {
          "indexed": true,
          "internalType": "uint256",
          "name": "credId",
          "type": "uint256"
        },
        {
          "indexed": false,
          "internalType": "uint256",
          "name": "index",
          "type": "uint256"
        },
        {
          "indexed": false,
          "internalType": "uint256",
          "name": "identityCommitment",
          "type": "uint256"
        },
        {
          "indexed": false,
          "internalType": "uint256",
          "name": "merkleTreeRoot",
          "type": "uint256"
        }
      ],
      "name": "IdentityAdded",
      "type": "event"
    },
    {
      "anonymous": false,
      "inputs": [
        {
          "indexed": true,
          "internalType": "uint256",
          "name": "credId",
          "type": "uint256"
        },
        {
          "indexed": false,
          "internalType": "uint256",
          "name": "index",
          "type": "uint256"
        },
        {
          "indexed": false,
          "internalType": "uint256",
          "name": "identityCommitment",
          "type": "uint256"
        },
        {
          "indexed": false,
          "internalType": "uint256",
          "name": "merkleTreeRoot",
          "type": "uint256"
        }
      ],
      "name": "IdentityRemoved",
      "type": "event"
    },
    {
      "anonymous": false,
      "inputs": [
        {
          "indexed": true,
          "internalType": "uint256",
          "name": "credId",
          "type": "uint256"
        },
        {
          "indexed": false,
          "internalType": "uint256",
          "name": "index",
          "type": "uint256"
        },
        {
          "indexed": false,
          "internalType": "uint256",
          "name": "identityCommitment",
          "type": "uint256"
        },
        {
          "indexed": false,
          "internalType": "uint256",
          "name": "newIdentityCommitment",
          "type": "uint256"
        },
        {
          "indexed": false,
          "internalType": "uint256",
          "name": "merkleTreeRoot",
          "type": "uint256"
        }
      ],
      "name": "IdentityUpdated",
      "type": "event"
    },
    {
      "anonymous": false,
      "inputs": [
        {
          "indexed": false,
          "internalType": "uint256",
          "name": "nullifierHash",
          "type": "uint256"
        }
      ],
      "name": "NullifierHashAdded",
      "type": "event"
    },
    {
      "anonymous": false,
      "inputs": [
        {
          "indexed": true,
          "internalType": "uint256",
          "name": "credId",
          "type": "uint256"
        },
        {
          "indexed": false,
          "internalType": "uint256",
          "name": "merkleTreeRoot",
          "type": "uint256"
        },
        {
          "indexed": false,
          "internalType": "uint256",
          "name": "externalNullifier",
          "type": "uint256"
        },
        {
          "indexed": false,
          "internalType": "uint256",
          "name": "nullifierHash",
          "type": "uint256"
        },
        {
          "indexed": false,
          "internalType": "bytes32",
          "name": "signal",
          "type": "bytes32"
        }
      ],
      "name": "ProofVerified",
      "type": "event"
    },
    {
      "anonymous": false,
      "inputs": [
        {
          "indexed": true,
          "internalType": "address",
          "name": "issuerAddress",
          "type": "address"
        },
        {
          "indexed": true,
          "internalType": "string",
          "name": "issuerName",
          "type": "string"
        },
        {
          "indexed": true,
          "internalType": "string",
          "name": "issuerSymbol",
          "type": "string"
        }
      ],
      "name": "issuerRegistered",
      "type": "event"
    },
    {
      "inputs": [
        {
          "internalType": "uint256",
          "name": "",
          "type": "uint256"
        }
      ],
      "name": "creds",
      "outputs": [
        {
          "internalType": "address",
          "name": "admin",
          "type": "address"
        },
        {
          "internalType": "string",
          "name": "credURI",
          "type": "string"
        },
        {
          "internalType": "uint256",
          "name": "merkleRootDuration",
          "type": "uint256"
        }
      ],
      "stateMutability": "view",
      "type": "function"
    },
    {
      "inputs": [],
      "name": "credsIssuedCount",
      "outputs": [
        {
          "internalType": "uint256",
          "name": "",
          "type": "uint256"
        }
      ],
      "stateMutability": "view",
      "type": "function"
    },
    {
      "inputs": [],
      "name": "credsIssuer",
      "outputs": [
        {
          "internalType": "address",
          "name": "",
          "type": "address"
        }
      ],
      "stateMutability": "view",
      "type": "function"
    },
    {
      "inputs": [],
      "name": "credsProtocolRegistry",
      "outputs": [
        {
          "internalType": "address",
          "name": "",
          "type": "address"
        }
      ],
      "stateMutability": "view",
      "type": "function"
    },
    {
      "inputs": [
        {
          "internalType": "uint256",
          "name": "credID",
          "type": "uint256"
        }
      ],
      "name": "getMerkleTreeDepth",
      "outputs": [
        {
          "internalType": "uint256",
          "name": "",
          "type": "uint256"
        }
      ],
      "stateMutability": "view",
      "type": "function"
    },
    {
      "inputs": [
        {
          "internalType": "uint256",
          "name": "credID",
          "type": "uint256"
        }
      ],
      "name": "getMerkleTreeRoot",
      "outputs": [
        {
          "internalType": "uint256",
          "name": "",
          "type": "uint256"
        }
      ],
      "stateMutability": "view",
      "type": "function"
    },
    {
      "inputs": [
        {
          "internalType": "uint256",
          "name": "credID",
          "type": "uint256"
        }
      ],
      "name": "getNumberOfMerkleTreeLeaves",
      "outputs": [
        {
          "internalType": "uint256",
          "name": "",
          "type": "uint256"
        }
      ],
      "stateMutability": "view",
      "type": "function"
    },
    {
      "inputs": [],
      "name": "issuerName",
      "outputs": [
        {
          "internalType": "string",
          "name": "",
          "type": "string"
        }
      ],
      "stateMutability": "view",
      "type": "function"
    },
    {
      "inputs": [],
      "name": "issuerSymbol",
      "outputs": [
        {
          "internalType": "string",
          "name": "",
          "type": "string"
        }
      ],
      "stateMutability": "view",
      "type": "function"
    },
    {
      "inputs": [
        {
          "internalType": "uint256",
          "name": "",
          "type": "uint256"
        }
      ],
      "name": "verifiers",
      "outputs": [
        {
          "internalType": "contract IVerifier",
          "name": "",
          "type": "address"
        }
      ],
      "stateMutability": "view",
      "type": "function"
    }
  ],
  "bytecode": "0x608060405273414b893562f46f5180971c3389784a447581b2d3600560006101000a81548173ffffffffffffffffffffffffffffffffffffffff021916908373ffffffffffffffffffffffffffffffffffffffff1602179055503480156200006657600080fd5b506040516200108d3803806200108d83398181016040528101906200008c919062000553565b60005b84518160ff1610156200018a57848160ff1681518110620000d9577f4e487b7100000000000000000000000000000000000000000000000000000000600052603260045260246000fd5b60200260200101516000015160066000878460ff168151811062000126577f4e487b7100000000000000000000000000000000000000000000000000000000600052603260045260246000fd5b602002602001015160200151815260200190815260200160002060006101000a81548173ffffffffffffffffffffffffffffffffffffffff021916908373ffffffffffffffffffffffffffffffffffffffff1602179055508060010190506200008f565b5082600160006101000a81548173ffffffffffffffffffffffffffffffffffffffff021916908373ffffffffffffffffffffffffffffffffffffffff1602179055508160029080519060200190620001e49291906200030e565b508060039080519060200190620001fd9291906200030e565b50600560009054906101000a900473ffffffffffffffffffffffffffffffffffffffff1673ffffffffffffffffffffffffffffffffffffffff1663c2551c8284306040518363ffffffff1660e01b81526004016200025d9291906200066b565b600060405180830381600087803b1580156200027857600080fd5b505af11580156200028d573d6000803e3d6000fd5b5050505080604051620002a1919062000652565b604051809103902082604051620002b9919062000652565b60405180910390208473ffffffffffffffffffffffffffffffffffffffff167ff51d47712d8574bf3715cf1db64ebb5a5c264fe57ff450433484f786f742ecec60405160405180910390a450505050620008bf565b8280546200031c90620007b0565b90600052602060002090601f0160209004810192826200034057600085556200038c565b82601f106200035b57805160ff19168380011785556200038c565b828001600101855582156200038c579182015b828111156200038b5782518255916020019190600101906200036e565b5b5090506200039b91906200039f565b5090565b5b80821115620003ba576000816000905550600101620003a0565b5090565b6000620003d5620003cf84620006c1565b62000698565b90508083825260208201905082856040860282011115620003f557600080fd5b60005b858110156200042957816200040e8882620004e9565b845260208401935060408301925050600181019050620003f8565b5050509392505050565b60006200044a6200044484620006f0565b62000698565b9050828152602081018484840111156200046357600080fd5b620004708482856200077a565b509392505050565b60008151905062000489816200088b565b92915050565b600082601f830112620004a157600080fd5b8151620004b3848260208601620003be565b91505092915050565b600082601f830112620004ce57600080fd5b8151620004e084826020860162000433565b91505092915050565b600060408284031215620004fc57600080fd5b62000508604062000698565b905060006200051a8482850162000478565b600083015250602062000530848285016200053c565b60208301525092915050565b6000815190506200054d81620008a5565b92915050565b600080600080608085870312156200056a57600080fd5b600085015167ffffffffffffffff8111156200058557600080fd5b62000593878288016200048f565b9450506020620005a68782880162000478565b935050604085015167ffffffffffffffff811115620005c457600080fd5b620005d287828801620004bc565b925050606085015167ffffffffffffffff811115620005f057600080fd5b620005fe87828801620004bc565b91505092959194509250565b62000615816200073c565b82525050565b6000620006288262000726565b62000634818562000731565b9350620006468185602086016200077a565b80840191505092915050565b60006200066082846200061b565b915081905092915050565b60006040820190506200068260008301856200060a565b6200069160208301846200060a565b9392505050565b6000620006a4620006b7565b9050620006b28282620007e6565b919050565b6000604051905090565b600067ffffffffffffffff821115620006df57620006de6200084b565b5b602082029050602081019050919050565b600067ffffffffffffffff8211156200070e576200070d6200084b565b5b62000719826200087a565b9050602081019050919050565b600081519050919050565b600081905092915050565b6000620007498262000750565b9050919050565b600073ffffffffffffffffffffffffffffffffffffffff82169050919050565b6000819050919050565b60005b838110156200079a5780820151818401526020810190506200077d565b83811115620007aa576000848401525b50505050565b60006002820490506001821680620007c957607f821691505b60208210811415620007e057620007df6200081c565b5b50919050565b620007f1826200087a565b810181811067ffffffffffffffff821117156200081357620008126200084b565b5b80604052505050565b7f4e487b7100000000000000000000000000000000000000000000000000000000600052602260045260246000fd5b7f4e487b7100000000000000000000000000000000000000000000000000000000600052604160045260246000fd5b6000601f19601f8301169050919050565b62000896816200073c565b8114620008a257600080fd5b50565b620008b08162000770565b8114620008bc57600080fd5b50565b6107be80620008cf6000396000f3fe608060405234801561001057600080fd5b506004361061009e5760003560e01c806381cc7a451161006657806381cc7a451461015d578063ac1eff681461018f578063c308dd5b146101bf578063dabc4d51146101dd578063eb4961061461020d5761009e565b80632e9868f8146100a3578063439d7275146100c15780634ce39ead146100df578063638480be146100fd5780636389e1071461012d575b600080fd5b6100ab61022b565b6040516100b89190610613565b60405180910390f35b6100c96102b9565b6040516100d69190610613565b60405180910390f35b6100e7610347565b6040516100f4919061059f565b60405180910390f35b61011760048036038101906101129190610510565b61036d565b6040516101249190610635565b60405180910390f35b61014760048036038101906101429190610510565b61038c565b6040516101549190610635565b60405180910390f35b61017760048036038101906101729190610510565b6103ab565b604051610186939291906105ba565b60405180910390f35b6101a960048036038101906101a49190610510565b61047d565b6040516101b691906105f8565b60405180910390f35b6101c76104b0565b6040516101d4919061059f565b60405180910390f35b6101f760048036038101906101f29190610510565b6104d6565b6040516102049190610635565b60405180910390f35b6102156104f5565b6040516102229190610635565b60405180910390f35b60028054610238906106ff565b80601f0160208091040260200160405190810160405280929190818152602001828054610264906106ff565b80156102b15780601f10610286576101008083540402835291602001916102b1565b820191906000526020600020905b81548152906001019060200180831161029457829003601f168201915b505050505081565b600380546102c6906106ff565b80601f01602080910402602001604051908101604052809291908181526020018280546102f2906106ff565b801561033f5780601f106103145761010080835404028352916020019161033f565b820191906000526020600020905b81548152906001019060200180831161032257829003601f168201915b505050505081565b600160009054906101000a900473ffffffffffffffffffffffffffffffffffffffff1681565b6000806000838152602001908152602001600020600201549050919050565b6000806000838152602001908152602001600020600001549050919050565b60076020528060005260406000206000915090508060000160009054906101000a900473ffffffffffffffffffffffffffffffffffffffff16908060010180546103f4906106ff565b80601f0160208091040260200160405190810160405280929190818152602001828054610420906106ff565b801561046d5780601f106104425761010080835404028352916020019161046d565b820191906000526020600020905b81548152906001019060200180831161045057829003601f168201915b5050505050908060020154905083565b60066020528060005260406000206000915054906101000a900473ffffffffffffffffffffffffffffffffffffffff1681565b600560009054906101000a900473ffffffffffffffffffffffffffffffffffffffff1681565b6000806000838152602001908152602001600020600101549050919050565b60045481565b60008135905061050a81610771565b92915050565b60006020828403121561052257600080fd5b6000610530848285016104fb565b91505092915050565b6105428161066c565b82525050565b610551816106a8565b82525050565b600061056282610650565b61056c818561065b565b935061057c8185602086016106cc565b61058581610760565b840191505092915050565b6105998161069e565b82525050565b60006020820190506105b46000830184610539565b92915050565b60006060820190506105cf6000830186610539565b81810360208301526105e18185610557565b90506105f06040830184610590565b949350505050565b600060208201905061060d6000830184610548565b92915050565b6000602082019050818103600083015261062d8184610557565b905092915050565b600060208201905061064a6000830184610590565b92915050565b600081519050919050565b600082825260208201905092915050565b60006106778261067e565b9050919050565b600073ffffffffffffffffffffffffffffffffffffffff82169050919050565b6000819050919050565b60006106b3826106ba565b9050919050565b60006106c58261067e565b9050919050565b60005b838110156106ea5780820151818401526020810190506106cf565b838111156106f9576000848401525b50505050565b6000600282049050600182168061071757607f821691505b6020821081141561072b5761072a610731565b5b50919050565b7f4e487b7100000000000000000000000000000000000000000000000000000000600052602260045260246000fd5b6000601f19601f8301169050919050565b61077a8161069e565b811461078557600080fd5b5056fea2646970667358221220228c69a32122cdde17feca1d3cf63991a34186848c1b8d81563138fe185179aa64736f6c63430008040033",
  "linkReferences": {},
  "deployedLinkReferences": {}
}