{
  "_format": "hh-sol-artifact-1",
  "contractName": "TrustifiedNonTransferable",
  "sourceName": "contracts/Trustified-NonTransferable.sol",
  "abi": [
    {
      "inputs": [],
      "stateMutability": "nonpayable",
      "type": "constructor"
    },
    {
      "anonymous": false,
      "inputs": [
        {
          "indexed": true,
          "internalType": "address",
          "name": "owner",
          "type": "address"
        },
        {
          "indexed": true,
          "internalType": "address",
          "name": "approved",
          "type": "address"
        },
        {
          "indexed": true,
          "internalType": "uint256",
          "name": "tokenId",
          "type": "uint256"
        }
      ],
      "name": "Approval",
      "type": "event"
    },
    {
      "anonymous": false,
      "inputs": [
        {
          "indexed": true,
          "internalType": "address",
          "name": "owner",
          "type": "address"
        },
        {
          "indexed": true,
          "internalType": "address",
          "name": "operator",
          "type": "address"
        },
        {
          "indexed": false,
          "internalType": "bool",
          "name": "approved",
          "type": "bool"
        }
      ],
      "name": "ApprovalForAll",
      "type": "event"
    },
    {
      "anonymous": false,
      "inputs": [
        {
          "indexed": false,
          "internalType": "address",
          "name": "",
          "type": "address"
        },
        {
          "indexed": false,
          "internalType": "uint256",
          "name": "",
          "type": "uint256"
        }
      ],
      "name": "TokenMinted",
      "type": "event"
    },
    {
      "anonymous": false,
      "inputs": [
        {
          "indexed": false,
          "internalType": "address",
          "name": "",
          "type": "address"
        },
        {
          "indexed": false,
          "internalType": "address",
          "name": "",
          "type": "address"
        },
        {
          "indexed": false,
          "internalType": "uint256",
          "name": "",
          "type": "uint256"
        }
      ],
      "name": "TokenTransfered",
      "type": "event"
    },
    {
      "anonymous": false,
      "inputs": [
        {
          "indexed": true,
          "internalType": "address",
          "name": "from",
          "type": "address"
        },
        {
          "indexed": true,
          "internalType": "address",
          "name": "to",
          "type": "address"
        },
        {
          "indexed": true,
          "internalType": "uint256",
          "name": "tokenId",
          "type": "uint256"
        }
      ],
      "name": "Transfer",
      "type": "event"
    },
    {
      "inputs": [
        {
          "internalType": "address",
          "name": "to",
          "type": "address"
        },
        {
          "internalType": "uint256",
          "name": "tokenId",
          "type": "uint256"
        }
      ],
      "name": "approve",
      "outputs": [],
      "stateMutability": "nonpayable",
      "type": "function"
    },
    {
      "inputs": [
        {
          "internalType": "address",
          "name": "owner",
          "type": "address"
        }
      ],
      "name": "balanceOf",
      "outputs": [
        {
          "internalType": "uint256",
          "name": "",
          "type": "uint256"
        }
      ],
      "stateMutability": "view",
      "type": "function"
    },
    {
      "inputs": [
        {
          "internalType": "string",
          "name": "tokenUri",
          "type": "string"
        },
        {
          "internalType": "uint256",
          "name": "quantity",
          "type": "uint256"
        }
      ],
      "name": "bulkMintBadgesERC721",
      "outputs": [],
      "stateMutability": "nonpayable",
      "type": "function"
    },
    {
      "inputs": [
        {
          "internalType": "string[]",
          "name": "tokenUris",
          "type": "string[]"
        }
      ],
      "name": "bulkMintERC721",
      "outputs": [],
      "stateMutability": "nonpayable",
      "type": "function"
    },
    {
      "inputs": [
        {
          "internalType": "uint256",
          "name": "tokenId",
          "type": "uint256"
        }
      ],
      "name": "getApproved",
      "outputs": [
        {
          "internalType": "address",
          "name": "",
          "type": "address"
        }
      ],
      "stateMutability": "view",
      "type": "function"
    },
    {
      "inputs": [
        {
          "internalType": "uint256",
          "name": "eventId",
          "type": "uint256"
        }
      ],
      "name": "getTokenIds",
      "outputs": [
        {
          "internalType": "uint256[]",
          "name": "",
          "type": "uint256[]"
        }
      ],
      "stateMutability": "view",
      "type": "function"
    },
    {
      "inputs": [
        {
          "internalType": "address",
          "name": "owner",
          "type": "address"
        },
        {
          "internalType": "address",
          "name": "operator",
          "type": "address"
        }
      ],
      "name": "isApprovedForAll",
      "outputs": [
        {
          "internalType": "bool",
          "name": "",
          "type": "bool"
        }
      ],
      "stateMutability": "view",
      "type": "function"
    },
    {
      "inputs": [],
      "name": "name",
      "outputs": [
        {
          "internalType": "string",
          "name": "",
          "type": "string"
        }
      ],
      "stateMutability": "view",
      "type": "function"
    },
    {
      "inputs": [],
      "name": "newEventId",
      "outputs": [
        {
          "internalType": "uint256",
          "name": "",
          "type": "uint256"
        }
      ],
      "stateMutability": "view",
      "type": "function"
    },
    {
      "inputs": [
        {
          "internalType": "uint256",
          "name": "tokenId",
          "type": "uint256"
        }
      ],
      "name": "ownerOf",
      "outputs": [
        {
          "internalType": "address",
          "name": "",
          "type": "address"
        }
      ],
      "stateMutability": "view",
      "type": "function"
    },
    {
      "inputs": [
        {
          "internalType": "string",
          "name": "tokenURI",
          "type": "string"
        }
      ],
      "name": "safeMint",
      "outputs": [
        {
          "internalType": "uint256",
          "name": "",
          "type": "uint256"
        }
      ],
      "stateMutability": "nonpayable",
      "type": "function"
    },
    {
      "inputs": [
        {
          "internalType": "address",
          "name": "from",
          "type": "address"
        },
        {
          "internalType": "address",
          "name": "to",
          "type": "address"
        },
        {
          "internalType": "uint256",
          "name": "tokenId",
          "type": "uint256"
        }
      ],
      "name": "safeTransferFrom",
      "outputs": [],
      "stateMutability": "nonpayable",
      "type": "function"
    },
    {
      "inputs": [
        {
          "internalType": "address",
          "name": "from",
          "type": "address"
        },
        {
          "internalType": "address",
          "name": "to",
          "type": "address"
        },
        {
          "internalType": "uint256",
          "name": "tokenId",
          "type": "uint256"
        },
        {
          "internalType": "bytes",
          "name": "data",
          "type": "bytes"
        }
      ],
      "name": "safeTransferFrom",
      "outputs": [],
      "stateMutability": "nonpayable",
      "type": "function"
    },
    {
      "inputs": [
        {
          "internalType": "address",
          "name": "operator",
          "type": "address"
        },
        {
          "internalType": "bool",
          "name": "approved",
          "type": "bool"
        }
      ],
      "name": "setApprovalForAll",
      "outputs": [],
      "stateMutability": "nonpayable",
      "type": "function"
    },
    {
      "inputs": [
        {
          "internalType": "bytes4",
          "name": "interfaceId",
          "type": "bytes4"
        }
      ],
      "name": "supportsInterface",
      "outputs": [
        {
          "internalType": "bool",
          "name": "",
          "type": "bool"
        }
      ],
      "stateMutability": "view",
      "type": "function"
    },
    {
      "inputs": [],
      "name": "symbol",
      "outputs": [
        {
          "internalType": "string",
          "name": "",
          "type": "string"
        }
      ],
      "stateMutability": "view",
      "type": "function"
    },
    {
      "inputs": [
        {
          "internalType": "uint256",
          "name": "",
          "type": "uint256"
        },
        {
          "internalType": "uint256",
          "name": "",
          "type": "uint256"
        }
      ],
      "name": "tokenIds",
      "outputs": [
        {
          "internalType": "uint256",
          "name": "",
          "type": "uint256"
        }
      ],
      "stateMutability": "view",
      "type": "function"
    },
    {
      "inputs": [
        {
          "internalType": "uint256",
          "name": "tokenId",
          "type": "uint256"
        }
      ],
      "name": "tokenURI",
      "outputs": [
        {
          "internalType": "string",
          "name": "",
          "type": "string"
        }
      ],
      "stateMutability": "view",
      "type": "function"
    },
    {
      "inputs": [
        {
          "internalType": "address",
          "name": "from",
          "type": "address"
        },
        {
          "internalType": "address",
          "name": "to",
          "type": "address"
        },
        {
          "internalType": "uint256",
          "name": "tokenId",
          "type": "uint256"
        }
      ],
      "name": "transferFrom",
      "outputs": [],
      "stateMutability": "nonpayable",
      "type": "function"
    },
    {
      "inputs": [
        {
          "internalType": "address",
          "name": "from",
          "type": "address"
        },
        {
          "internalType": "address",
          "name": "to",
          "type": "address"
        },
        {
          "internalType": "uint256",
          "name": "tokenId",
          "type": "uint256"
        }
      ],
      "name": "transferToken",
      "outputs": [],
      "stateMutability": "nonpayable",
      "type": "function"
    }
  ],
  "bytecode": "0x60806040523480156200001157600080fd5b506040518060400160405280600a81526020017f54727573746966696564000000000000000000000000000000000000000000008152506040518060400160405280600381526020017f54464e0000000000000000000000000000000000000000000000000000000000815250816000908051906020019062000096929190620000b8565b508060019080519060200190620000af929190620000b8565b505050620001cd565b828054620000c69062000168565b90600052602060002090601f016020900481019282620000ea576000855562000136565b82601f106200010557805160ff191683800117855562000136565b8280016001018555821562000136579182015b828111156200013557825182559160200191906001019062000118565b5b50905062000145919062000149565b5090565b5b80821115620001645760008160009055506001016200014a565b5090565b600060028204905060018216806200018157607f821691505b602082108114156200019857620001976200019e565b5b50919050565b7f4e487b7100000000000000000000000000000000000000000000000000000000600052602260045260246000fd5b61342480620001dd6000396000f3fe608060405234801561001057600080fd5b506004361061012c5760003560e01c806389f1aa39116100ad578063d4bd81ff11610071578063d4bd81ff14610365578063d4d94b0514610383578063e985e9c51461039f578063eed8cc35146103cf578063f5537ede146103ff5761012c565b806389f1aa39146102c357806395d89b41146102df578063a22cb465146102fd578063b88d4fde14610319578063c87b56dd146103355761012c565b806342842e0e116100f457806342842e0e146101e757806357991d30146102035780636352211e14610233578063695850fb1461026357806370a08231146102935761012c565b806301ffc9a71461013157806306fdde0314610161578063081812fc1461017f578063095ea7b3146101af57806323b872dd146101cb575b600080fd5b61014b6004803603810190610146919061246f565b61041b565b6040516101589190612a07565b60405180910390f35b6101696104fd565b6040516101769190612a22565b60405180910390f35b61019960048036038101906101949190612556565b61058f565b6040516101a6919061291e565b60405180910390f35b6101c960048036038101906101c491906123f2565b6105d5565b005b6101e560048036038101906101e091906122ec565b6106ed565b005b61020160048036038101906101fc91906122ec565b610746565b005b61021d60048036038101906102189190612556565b610766565b60405161022a91906129e5565b60405180910390f35b61024d60048036038101906102489190612556565b6107d1565b60405161025a919061291e565b60405180910390f35b61027d600480360381019061027891906124c1565b610858565b60405161028a9190612c04565b60405180910390f35b6102ad60048036038101906102a89190612287565b61088e565b6040516102ba9190612c04565b60405180910390f35b6102dd60048036038101906102d8919061242e565b610946565b005b6102e7610a4a565b6040516102f49190612a22565b60405180910390f35b610317600480360381019061031291906123b6565b610adc565b005b610333600480360381019061032e919061233b565b610af2565b005b61034f600480360381019061034a9190612556565b610b54565b60405161035c9190612a22565b60405180910390f35b61036d610c67565b60405161037a9190612c04565b60405180910390f35b61039d60048036038101906103989190612502565b610c6d565b005b6103b960048036038101906103b491906122b0565b610d31565b6040516103c69190612a07565b60405180910390f35b6103e960048036038101906103e4919061257f565b610dc5565b6040516103f69190612c04565b60405180910390f35b610419600480360381019061041491906122ec565b610df6565b005b60007f80ac58cd000000000000000000000000000000000000000000000000000000007bffffffffffffffffffffffffffffffffffffffffffffffffffffffff1916827bffffffffffffffffffffffffffffffffffffffffffffffffffffffff191614806104e657507f5b5e139f000000000000000000000000000000000000000000000000000000007bffffffffffffffffffffffffffffffffffffffffffffffffffffffff1916827bffffffffffffffffffffffffffffffffffffffffffffffffffffffff1916145b806104f657506104f582610f39565b5b9050919050565b60606000805461050c90612e8e565b80601f016020809104026020016040519081016040528092919081815260200182805461053890612e8e565b80156105855780601f1061055a57610100808354040283529160200191610585565b820191906000526020600020905b81548152906001019060200180831161056857829003601f168201915b5050505050905090565b600061059a82610fa3565b6004600083815260200190815260200160002060009054906101000a900473ffffffffffffffffffffffffffffffffffffffff169050919050565b60006105e0826107d1565b90508073ffffffffffffffffffffffffffffffffffffffff168373ffffffffffffffffffffffffffffffffffffffff161415610651576040517f08c379a000000000000000000000000000000000000000000000000000000000815260040161064890612b84565b60405180910390fd5b8073ffffffffffffffffffffffffffffffffffffffff16610670610fee565b73ffffffffffffffffffffffffffffffffffffffff16148061069f575061069e81610699610fee565b610d31565b5b6106de576040517f08c379a00000000000000000000000000000000000000000000000000000000081526004016106d590612ba4565b60405180910390fd5b6106e88383610ff6565b505050565b6106f783826110af565b610736576040517f08c379a000000000000000000000000000000000000000000000000000000000815260040161072d90612bc4565b60405180910390fd5b610741838383611144565b505050565b61076183838360405180602001604052806000815250610af2565b505050565b6060600960008381526020019081526020016000208054806020026020016040519081016040528092919081815260200182805480156107c557602002820191906000526020600020905b8154815260200190600101908083116107b1575b50505050509050919050565b6000806107dd8361143e565b9050600073ffffffffffffffffffffffffffffffffffffffff168173ffffffffffffffffffffffffffffffffffffffff16141561084f576040517f08c379a000000000000000000000000000000000000000000000000000000000815260040161084690612b64565b60405180910390fd5b80915050919050565b600080610865600761147b565b90506108716007611489565b61087b308261149f565b61088581846116bd565b80915050919050565b60008073ffffffffffffffffffffffffffffffffffffffff168273ffffffffffffffffffffffffffffffffffffffff1614156108ff576040517f08c379a00000000000000000000000000000000000000000000000000000000081526004016108f690612b04565b60405180910390fd5b600360008373ffffffffffffffffffffffffffffffffffffffff1673ffffffffffffffffffffffffffffffffffffffff168152602001908152602001600020549050919050565b6000610952600861147b565b905061095e6008611489565b60005b8251811015610a055760006109b58483815181106109a8577f4e487b7100000000000000000000000000000000000000000000000000000000600052603260045260246000fd5b6020026020010151610858565b9050600960008481526020019081526020016000208190806001815401808255809150506001900390600052602060002001600090919091909150555080806109fd90612ef1565b915050610961565b5080600b819055507fb9144c96c86541f6fa89c9f2f02495cccf4b08cd6643e26d34ee00aa586558a83382604051610a3e9291906129bc565b60405180910390a15050565b606060018054610a5990612e8e565b80601f0160208091040260200160405190810160405280929190818152602001828054610a8590612e8e565b8015610ad25780601f10610aa757610100808354040283529160200191610ad2565b820191906000526020600020905b815481529060010190602001808311610ab557829003601f168201915b5050505050905090565b610aee610ae7610fee565b8383611731565b5050565b610b03610afd610fee565b836110af565b610b42576040517f08c379a0000000000000000000000000000000000000000000000000000000008152600401610b3990612a44565b60405180910390fd5b610b4e8484848461189e565b50505050565b6060610b5f82610fa3565b6000600660008481526020019081526020016000208054610b7f90612e8e565b80601f0160208091040260200160405190810160405280929190818152602001828054610bab90612e8e565b8015610bf85780601f10610bcd57610100808354040283529160200191610bf8565b820191906000526020600020905b815481529060010190602001808311610bdb57829003601f168201915b505050505090506000610c096118fa565b9050600081511415610c1f578192505050610c62565b600082511115610c54578082604051602001610c3c9291906128fa565b60405160208183030381529060405292505050610c62565b610c5d84611911565b925050505b919050565b600b5481565b6000610c79600861147b565b9050610c856008611489565b60005b82811015610ceb576000610c9b85610858565b905060096000848152602001908152602001600020819080600181540180825580915050600190039060005260206000200160009091909190915055508080610ce390612ef1565b915050610c88565b5080600b819055507fb9144c96c86541f6fa89c9f2f02495cccf4b08cd6643e26d34ee00aa586558a83382604051610d249291906129bc565b60405180910390a1505050565b6000600560008473ffffffffffffffffffffffffffffffffffffffff1673ffffffffffffffffffffffffffffffffffffffff16815260200190815260200160002060008373ffffffffffffffffffffffffffffffffffffffff1673ffffffffffffffffffffffffffffffffffffffff16815260200190815260200160002060009054906101000a900460ff16905092915050565b60096020528160005260406000208181548110610de157600080fd5b90600052602060002001600091509150505481565b60011515600a600083815260200190815260200160002060009054906101000a900460ff1615151415610e5e576040517f08c379a0000000000000000000000000000000000000000000000000000000008152600401610e5590612be4565b60405180910390fd5b3073ffffffffffffffffffffffffffffffffffffffff166323b872dd8484846040518463ffffffff1660e01b8152600401610e9b93929190612939565b600060405180830381600087803b158015610eb557600080fd5b505af1158015610ec9573d6000803e3d6000fd5b505050507fec61728879a33aa50b55e1f4789dcfc1c680f30a24d7b8694a9f874e242a97b4838383604051610f0093929190612939565b60405180910390a16001600a600083815260200190815260200160002060006101000a81548160ff021916908315150217905550505050565b60007f01ffc9a7000000000000000000000000000000000000000000000000000000007bffffffffffffffffffffffffffffffffffffffffffffffffffffffff1916827bffffffffffffffffffffffffffffffffffffffffffffffffffffffff1916149050919050565b610fac81611979565b610feb576040517f08c379a0000000000000000000000000000000000000000000000000000000008152600401610fe290612b64565b60405180910390fd5b50565b600033905090565b816004600083815260200190815260200160002060006101000a81548173ffffffffffffffffffffffffffffffffffffffff021916908373ffffffffffffffffffffffffffffffffffffffff160217905550808273ffffffffffffffffffffffffffffffffffffffff16611069836107d1565b73ffffffffffffffffffffffffffffffffffffffff167f8c5be1e5ebec7d5bd14f71427d1e84f3dd0314c0f7b2291e5b200ac8c7c3b92560405160405180910390a45050565b6000806110bb836107d1565b90508073ffffffffffffffffffffffffffffffffffffffff168473ffffffffffffffffffffffffffffffffffffffff1614806110fd57506110fc8185610d31565b5b8061113b57508373ffffffffffffffffffffffffffffffffffffffff166111238461058f565b73ffffffffffffffffffffffffffffffffffffffff16145b91505092915050565b8273ffffffffffffffffffffffffffffffffffffffff16611164826107d1565b73ffffffffffffffffffffffffffffffffffffffff16146111ba576040517f08c379a00000000000000000000000000000000000000000000000000000000081526004016111b190612a84565b60405180910390fd5b600073ffffffffffffffffffffffffffffffffffffffff168273ffffffffffffffffffffffffffffffffffffffff16141561122a576040517f08c379a000000000000000000000000000000000000000000000000000000000815260040161122190612ac4565b60405180910390fd5b61123783838360016119ba565b8273ffffffffffffffffffffffffffffffffffffffff16611257826107d1565b73ffffffffffffffffffffffffffffffffffffffff16146112ad576040517f08c379a00000000000000000000000000000000000000000000000000000000081526004016112a490612a84565b60405180910390fd5b6004600082815260200190815260200160002060006101000a81549073ffffffffffffffffffffffffffffffffffffffff02191690556001600360008573ffffffffffffffffffffffffffffffffffffffff1673ffffffffffffffffffffffffffffffffffffffff168152602001908152602001600020600082825403925050819055506001600360008473ffffffffffffffffffffffffffffffffffffffff1673ffffffffffffffffffffffffffffffffffffffff16815260200190815260200160002060008282540192505081905550816002600083815260200190815260200160002060006101000a81548173ffffffffffffffffffffffffffffffffffffffff021916908373ffffffffffffffffffffffffffffffffffffffff160217905550808273ffffffffffffffffffffffffffffffffffffffff168473ffffffffffffffffffffffffffffffffffffffff167fddf252ad1be2c89b69c2b068fc378daa952ba7f163c4a11628f55a4df523b3ef60405160405180910390a46114398383836001611ae0565b505050565b60006002600083815260200190815260200160002060009054906101000a900473ffffffffffffffffffffffffffffffffffffffff169050919050565b600081600001549050919050565b6001816000016000828254019250508190555050565b600073ffffffffffffffffffffffffffffffffffffffff168273ffffffffffffffffffffffffffffffffffffffff16141561150f576040517f08c379a000000000000000000000000000000000000000000000000000000000815260040161150690612b44565b60405180910390fd5b61151881611979565b15611558576040517f08c379a000000000000000000000000000000000000000000000000000000000815260040161154f90612aa4565b60405180910390fd5b6115666000838360016119ba565b61156f81611979565b156115af576040517f08c379a00000000000000000000000000000000000000000000000000000000081526004016115a690612aa4565b60405180910390fd5b6001600360008473ffffffffffffffffffffffffffffffffffffffff1673ffffffffffffffffffffffffffffffffffffffff16815260200190815260200160002060008282540192505081905550816002600083815260200190815260200160002060006101000a81548173ffffffffffffffffffffffffffffffffffffffff021916908373ffffffffffffffffffffffffffffffffffffffff160217905550808273ffffffffffffffffffffffffffffffffffffffff16600073ffffffffffffffffffffffffffffffffffffffff167fddf252ad1be2c89b69c2b068fc378daa952ba7f163c4a11628f55a4df523b3ef60405160405180910390a46116b9600083836001611ae0565b5050565b6116c682611979565b611705576040517f08c379a00000000000000000000000000000000000000000000000000000000081526004016116fc90612b24565b60405180910390fd5b8060066000848152602001908152602001600020908051906020019061172c929190611ffb565b505050565b8173ffffffffffffffffffffffffffffffffffffffff168373ffffffffffffffffffffffffffffffffffffffff1614156117a0576040517f08c379a000000000000000000000000000000000000000000000000000000000815260040161179790612ae4565b60405180910390fd5b80600560008573ffffffffffffffffffffffffffffffffffffffff1673ffffffffffffffffffffffffffffffffffffffff16815260200190815260200160002060008473ffffffffffffffffffffffffffffffffffffffff1673ffffffffffffffffffffffffffffffffffffffff16815260200190815260200160002060006101000a81548160ff0219169083151502179055508173ffffffffffffffffffffffffffffffffffffffff168373ffffffffffffffffffffffffffffffffffffffff167f17307eab39ab6107e8899845ad3d59bd9653f200f220920489ca2b5937696c31836040516118919190612a07565b60405180910390a3505050565b6118a9848484611144565b6118b584848484611ae6565b6118f4576040517f08c379a00000000000000000000000000000000000000000000000000000000081526004016118eb90612a64565b60405180910390fd5b50505050565b606060405180602001604052806000815250905090565b606061191c82610fa3565b60006119266118fa565b905060008151116119465760405180602001604052806000815250611971565b8061195084611c7d565b6040516020016119619291906128fa565b6040516020818303038152906040525b915050919050565b60008073ffffffffffffffffffffffffffffffffffffffff1661199b8361143e565b73ffffffffffffffffffffffffffffffffffffffff1614159050919050565b6001811115611ada57600073ffffffffffffffffffffffffffffffffffffffff168473ffffffffffffffffffffffffffffffffffffffff1614611a4e5780600360008673ffffffffffffffffffffffffffffffffffffffff1673ffffffffffffffffffffffffffffffffffffffff1681526020019081526020016000206000828254611a469190612da4565b925050819055505b600073ffffffffffffffffffffffffffffffffffffffff168373ffffffffffffffffffffffffffffffffffffffff1614611ad95780600360008573ffffffffffffffffffffffffffffffffffffffff1673ffffffffffffffffffffffffffffffffffffffff1681526020019081526020016000206000828254611ad19190612d4e565b925050819055505b5b50505050565b50505050565b6000611b078473ffffffffffffffffffffffffffffffffffffffff16611da1565b15611c70578373ffffffffffffffffffffffffffffffffffffffff1663150b7a02611b30610fee565b8786866040518563ffffffff1660e01b8152600401611b529493929190612970565b602060405180830381600087803b158015611b6c57600080fd5b505af1925050508015611b9d57506040513d601f19601f82011682018060405250810190611b9a9190612498565b60015b611c20573d8060008114611bcd576040519150601f19603f3d011682016040523d82523d6000602084013e611bd2565b606091505b50600081511415611c18576040517f08c379a0000000000000000000000000000000000000000000000000000000008152600401611c0f90612a64565b60405180910390fd5b805181602001fd5b63150b7a0260e01b7bffffffffffffffffffffffffffffffffffffffffffffffffffffffff1916817bffffffffffffffffffffffffffffffffffffffffffffffffffffffff191614915050611c75565b600190505b949350505050565b606060006001611c8c84611dc4565b01905060008167ffffffffffffffff811115611cd1577f4e487b7100000000000000000000000000000000000000000000000000000000600052604160045260246000fd5b6040519080825280601f01601f191660200182016040528015611d035781602001600182028036833780820191505090505b509050600082602001820190505b600115611d96578080600190039150507f3031323334353637383961626364656600000000000000000000000000000000600a86061a8153600a8581611d80577f4e487b7100000000000000000000000000000000000000000000000000000000600052601260045260246000fd5b0494506000851415611d9157611d96565b611d11565b819350505050919050565b6000808273ffffffffffffffffffffffffffffffffffffffff163b119050919050565b600080600090507a184f03e93ff9f4daa797ed6e38ed64bf6a1f0100000000000000008310611e48577a184f03e93ff9f4daa797ed6e38ed64bf6a1f0100000000000000008381611e3e577f4e487b7100000000000000000000000000000000000000000000000000000000600052601260045260246000fd5b0492506040810190505b6d04ee2d6d415b85acef81000000008310611eab576d04ee2d6d415b85acef81000000008381611ea1577f4e487b7100000000000000000000000000000000000000000000000000000000600052601260045260246000fd5b0492506020810190505b662386f26fc100008310611f0057662386f26fc100008381611ef6577f4e487b7100000000000000000000000000000000000000000000000000000000600052601260045260246000fd5b0492506010810190505b6305f5e1008310611f4f576305f5e1008381611f45577f4e487b7100000000000000000000000000000000000000000000000000000000600052601260045260246000fd5b0492506008810190505b6127108310611f9a576127108381611f90577f4e487b7100000000000000000000000000000000000000000000000000000000600052601260045260246000fd5b0492506004810190505b60648310611fe35760648381611fd9577f4e487b7100000000000000000000000000000000000000000000000000000000600052601260045260246000fd5b0492506002810190505b600a8310611ff2576001810190505b80915050919050565b82805461200790612e8e565b90600052602060002090601f0160209004810192826120295760008555612070565b82601f1061204257805160ff1916838001178555612070565b82800160010185558215612070579182015b8281111561206f578251825591602001919060010190612054565b5b50905061207d9190612081565b5090565b5b8082111561209a576000816000905550600101612082565b5090565b60006120b16120ac84612c44565b612c1f565b905080838252602082019050828560208602820111156120d057600080fd5b60005b8581101561211a57813567ffffffffffffffff8111156120f257600080fd5b8086016120ff8982612248565b855260208501945060208401935050506001810190506120d3565b5050509392505050565b600061213761213284612c70565b612c1f565b90508281526020810184848401111561214f57600080fd5b61215a848285612e4c565b509392505050565b600061217561217084612ca1565b612c1f565b90508281526020810184848401111561218d57600080fd5b612198848285612e4c565b509392505050565b6000813590506121af81613392565b92915050565b600082601f8301126121c657600080fd5b81356121d684826020860161209e565b91505092915050565b6000813590506121ee816133a9565b92915050565b600081359050612203816133c0565b92915050565b600081519050612218816133c0565b92915050565b600082601f83011261222f57600080fd5b813561223f848260208601612124565b91505092915050565b600082601f83011261225957600080fd5b8135612269848260208601612162565b91505092915050565b600081359050612281816133d7565b92915050565b60006020828403121561229957600080fd5b60006122a7848285016121a0565b91505092915050565b600080604083850312156122c357600080fd5b60006122d1858286016121a0565b92505060206122e2858286016121a0565b9150509250929050565b60008060006060848603121561230157600080fd5b600061230f868287016121a0565b9350506020612320868287016121a0565b925050604061233186828701612272565b9150509250925092565b6000806000806080858703121561235157600080fd5b600061235f878288016121a0565b9450506020612370878288016121a0565b935050604061238187828801612272565b925050606085013567ffffffffffffffff81111561239e57600080fd5b6123aa8782880161221e565b91505092959194509250565b600080604083850312156123c957600080fd5b60006123d7858286016121a0565b92505060206123e8858286016121df565b9150509250929050565b6000806040838503121561240557600080fd5b6000612413858286016121a0565b925050602061242485828601612272565b9150509250929050565b60006020828403121561244057600080fd5b600082013567ffffffffffffffff81111561245a57600080fd5b612466848285016121b5565b91505092915050565b60006020828403121561248157600080fd5b600061248f848285016121f4565b91505092915050565b6000602082840312156124aa57600080fd5b60006124b884828501612209565b91505092915050565b6000602082840312156124d357600080fd5b600082013567ffffffffffffffff8111156124ed57600080fd5b6124f984828501612248565b91505092915050565b6000806040838503121561251557600080fd5b600083013567ffffffffffffffff81111561252f57600080fd5b61253b85828601612248565b925050602061254c85828601612272565b9150509250929050565b60006020828403121561256857600080fd5b600061257684828501612272565b91505092915050565b6000806040838503121561259257600080fd5b60006125a085828601612272565b92505060206125b185828601612272565b9150509250929050565b60006125c783836128dc565b60208301905092915050565b6125dc81612dd8565b82525050565b60006125ed82612ce2565b6125f78185612d10565b935061260283612cd2565b8060005b8381101561263357815161261a88826125bb565b975061262583612d03565b925050600181019050612606565b5085935050505092915050565b61264981612dea565b82525050565b600061265a82612ced565b6126648185612d21565b9350612674818560208601612e5b565b61267d81612fc7565b840191505092915050565b600061269382612cf8565b61269d8185612d32565b93506126ad818560208601612e5b565b6126b681612fc7565b840191505092915050565b60006126cc82612cf8565b6126d68185612d43565b93506126e6818560208601612e5b565b80840191505092915050565b60006126ff602d83612d32565b915061270a82612fd8565b604082019050919050565b6000612722603283612d32565b915061272d82613027565b604082019050919050565b6000612745602583612d32565b915061275082613076565b604082019050919050565b6000612768601c83612d32565b9150612773826130c5565b602082019050919050565b600061278b602483612d32565b9150612796826130ee565b604082019050919050565b60006127ae601983612d32565b91506127b98261313d565b602082019050919050565b60006127d1602983612d32565b91506127dc82613166565b604082019050919050565b60006127f4602e83612d32565b91506127ff826131b5565b604082019050919050565b6000612817602083612d32565b915061282282613204565b602082019050919050565b600061283a601883612d32565b91506128458261322d565b602082019050919050565b600061285d602183612d32565b915061286882613256565b604082019050919050565b6000612880603d83612d32565b915061288b826132a5565b604082019050919050565b60006128a3603183612d32565b91506128ae826132f4565b604082019050919050565b60006128c6602283612d32565b91506128d182613343565b604082019050919050565b6128e581612e42565b82525050565b6128f481612e42565b82525050565b600061290682856126c1565b915061291282846126c1565b91508190509392505050565b600060208201905061293360008301846125d3565b92915050565b600060608201905061294e60008301866125d3565b61295b60208301856125d3565b61296860408301846128eb565b949350505050565b600060808201905061298560008301876125d3565b61299260208301866125d3565b61299f60408301856128eb565b81810360608301526129b1818461264f565b905095945050505050565b60006040820190506129d160008301856125d3565b6129de60208301846128eb565b9392505050565b600060208201905081810360008301526129ff81846125e2565b905092915050565b6000602082019050612a1c6000830184612640565b92915050565b60006020820190508181036000830152612a3c8184612688565b905092915050565b60006020820190508181036000830152612a5d816126f2565b9050919050565b60006020820190508181036000830152612a7d81612715565b9050919050565b60006020820190508181036000830152612a9d81612738565b9050919050565b60006020820190508181036000830152612abd8161275b565b9050919050565b60006020820190508181036000830152612add8161277e565b9050919050565b60006020820190508181036000830152612afd816127a1565b9050919050565b60006020820190508181036000830152612b1d816127c4565b9050919050565b60006020820190508181036000830152612b3d816127e7565b9050919050565b60006020820190508181036000830152612b5d8161280a565b9050919050565b60006020820190508181036000830152612b7d8161282d565b9050919050565b60006020820190508181036000830152612b9d81612850565b9050919050565b60006020820190508181036000830152612bbd81612873565b9050919050565b60006020820190508181036000830152612bdd81612896565b9050919050565b60006020820190508181036000830152612bfd816128b9565b9050919050565b6000602082019050612c1960008301846128eb565b92915050565b6000612c29612c3a565b9050612c358282612ec0565b919050565b6000604051905090565b600067ffffffffffffffff821115612c5f57612c5e612f98565b5b602082029050602081019050919050565b600067ffffffffffffffff821115612c8b57612c8a612f98565b5b612c9482612fc7565b9050602081019050919050565b600067ffffffffffffffff821115612cbc57612cbb612f98565b5b612cc582612fc7565b9050602081019050919050565b6000819050602082019050919050565b600081519050919050565b600081519050919050565b600081519050919050565b6000602082019050919050565b600082825260208201905092915050565b600082825260208201905092915050565b600082825260208201905092915050565b600081905092915050565b6000612d5982612e42565b9150612d6483612e42565b9250827fffffffffffffffffffffffffffffffffffffffffffffffffffffffffffffffff03821115612d9957612d98612f3a565b5b828201905092915050565b6000612daf82612e42565b9150612dba83612e42565b925082821015612dcd57612dcc612f3a565b5b828203905092915050565b6000612de382612e22565b9050919050565b60008115159050919050565b60007fffffffff0000000000000000000000000000000000000000000000000000000082169050919050565b600073ffffffffffffffffffffffffffffffffffffffff82169050919050565b6000819050919050565b82818337600083830152505050565b60005b83811015612e79578082015181840152602081019050612e5e565b83811115612e88576000848401525b50505050565b60006002820490506001821680612ea657607f821691505b60208210811415612eba57612eb9612f69565b5b50919050565b612ec982612fc7565b810181811067ffffffffffffffff82111715612ee857612ee7612f98565b5b80604052505050565b6000612efc82612e42565b91507fffffffffffffffffffffffffffffffffffffffffffffffffffffffffffffffff821415612f2f57612f2e612f3a565b5b600182019050919050565b7f4e487b7100000000000000000000000000000000000000000000000000000000600052601160045260246000fd5b7f4e487b7100000000000000000000000000000000000000000000000000000000600052602260045260246000fd5b7f4e487b7100000000000000000000000000000000000000000000000000000000600052604160045260246000fd5b6000601f19601f8301169050919050565b7f4552433732313a2063616c6c6572206973206e6f7420746f6b656e206f776e6560008201527f72206f7220617070726f76656400000000000000000000000000000000000000602082015250565b7f4552433732313a207472616e7366657220746f206e6f6e20455243373231526560008201527f63656976657220696d706c656d656e7465720000000000000000000000000000602082015250565b7f4552433732313a207472616e736665722066726f6d20696e636f72726563742060008201527f6f776e6572000000000000000000000000000000000000000000000000000000602082015250565b7f4552433732313a20746f6b656e20616c7265616479206d696e74656400000000600082015250565b7f4552433732313a207472616e7366657220746f20746865207a65726f2061646460008201527f7265737300000000000000000000000000000000000000000000000000000000602082015250565b7f4552433732313a20617070726f766520746f2063616c6c657200000000000000600082015250565b7f4552433732313a2061646472657373207a65726f206973206e6f74206120766160008201527f6c6964206f776e65720000000000000000000000000000000000000000000000602082015250565b7f45524337323155524953746f726167653a2055524920736574206f66206e6f6e60008201527f6578697374656e7420746f6b656e000000000000000000000000000000000000602082015250565b7f4552433732313a206d696e7420746f20746865207a65726f2061646472657373600082015250565b7f4552433732313a20696e76616c696420746f6b656e2049440000000000000000600082015250565b7f4552433732313a20617070726f76616c20746f2063757272656e74206f776e6560008201527f7200000000000000000000000000000000000000000000000000000000000000602082015250565b7f4552433732313a20617070726f76652063616c6c6572206973206e6f7420746f60008201527f6b656e206f776e6572206f7220617070726f76656420666f7220616c6c000000602082015250565b7f4552433732313a207472616e736665722063616c6c6572206973206e6f74206f60008201527f776e6572206e6f7220617070726f766564000000000000000000000000000000602082015250565b7f5468697320746f6b656e2063616e206e6f74206265207472616e73666572726560008201527f6421000000000000000000000000000000000000000000000000000000000000602082015250565b61339b81612dd8565b81146133a657600080fd5b50565b6133b281612dea565b81146133bd57600080fd5b50565b6133c981612df6565b81146133d457600080fd5b50565b6133e081612e42565b81146133eb57600080fd5b5056fea26469706673582212203f99a8e68638f929f9d40be1db680ab78626bf0b3d79e57193b599fe64cb29ea64736f6c63430008040033",
  "linkReferences": {},
  "deployedLinkReferences": {}
}