{
  "_format": "hh-sol-artifact-1",
  "contractName": "TrustifiedNonTransferable",
  "sourceName": "contracts/Trustified-NonTransferable.sol",
  "abi": [
    {
      "inputs": [],
      "stateMutability": "nonpayable",
      "type": "constructor"
    },
    {
      "anonymous": false,
      "inputs": [
        {
          "indexed": true,
          "internalType": "address",
          "name": "owner",
          "type": "address"
        },
        {
          "indexed": true,
          "internalType": "address",
          "name": "approved",
          "type": "address"
        },
        {
          "indexed": true,
          "internalType": "uint256",
          "name": "tokenId",
          "type": "uint256"
        }
      ],
      "name": "Approval",
      "type": "event"
    },
    {
      "anonymous": false,
      "inputs": [
        {
          "indexed": true,
          "internalType": "address",
          "name": "owner",
          "type": "address"
        },
        {
          "indexed": true,
          "internalType": "address",
          "name": "operator",
          "type": "address"
        },
        {
          "indexed": false,
          "internalType": "bool",
          "name": "approved",
          "type": "bool"
        }
      ],
      "name": "ApprovalForAll",
      "type": "event"
    },
    {
      "anonymous": false,
      "inputs": [
        {
          "indexed": false,
          "internalType": "address",
          "name": "",
          "type": "address"
        },
        {
          "indexed": false,
          "internalType": "uint256",
          "name": "",
          "type": "uint256"
        }
      ],
      "name": "TokenMinted",
      "type": "event"
    },
    {
      "anonymous": false,
      "inputs": [
        {
          "indexed": false,
          "internalType": "address",
          "name": "",
          "type": "address"
        },
        {
          "indexed": false,
          "internalType": "address",
          "name": "",
          "type": "address"
        },
        {
          "indexed": false,
          "internalType": "uint256",
          "name": "",
          "type": "uint256"
        }
      ],
      "name": "TokenTransfered",
      "type": "event"
    },
    {
      "anonymous": false,
      "inputs": [
        {
          "indexed": true,
          "internalType": "address",
          "name": "from",
          "type": "address"
        },
        {
          "indexed": true,
          "internalType": "address",
          "name": "to",
          "type": "address"
        },
        {
          "indexed": true,
          "internalType": "uint256",
          "name": "tokenId",
          "type": "uint256"
        }
      ],
      "name": "Transfer",
      "type": "event"
    },
    {
      "inputs": [
        {
          "internalType": "address",
          "name": "to",
          "type": "address"
        },
        {
          "internalType": "uint256",
          "name": "tokenId",
          "type": "uint256"
        }
      ],
      "name": "approve",
      "outputs": [],
      "stateMutability": "nonpayable",
      "type": "function"
    },
    {
      "inputs": [
        {
          "internalType": "address",
          "name": "owner",
          "type": "address"
        }
      ],
      "name": "balanceOf",
      "outputs": [
        {
          "internalType": "uint256",
          "name": "",
          "type": "uint256"
        }
      ],
      "stateMutability": "view",
      "type": "function"
    },
    {
      "inputs": [
        {
          "internalType": "string",
          "name": "tokenUri",
          "type": "string"
        },
        {
          "internalType": "uint256",
          "name": "quantity",
          "type": "uint256"
        }
      ],
      "name": "bulkMintBadgesERC721",
      "outputs": [],
      "stateMutability": "nonpayable",
      "type": "function"
    },
    {
      "inputs": [
        {
          "internalType": "string[]",
          "name": "tokenUris",
          "type": "string[]"
        }
      ],
      "name": "bulkMintERC721",
      "outputs": [],
      "stateMutability": "nonpayable",
      "type": "function"
    },
    {
      "inputs": [
        {
          "internalType": "uint256",
          "name": "tokenId",
          "type": "uint256"
        }
      ],
      "name": "getApproved",
      "outputs": [
        {
          "internalType": "address",
          "name": "",
          "type": "address"
        }
      ],
      "stateMutability": "view",
      "type": "function"
    },
    {
      "inputs": [
        {
          "internalType": "uint256",
          "name": "eventId",
          "type": "uint256"
        }
      ],
      "name": "getTokenIds",
      "outputs": [
        {
          "internalType": "uint256[]",
          "name": "",
          "type": "uint256[]"
        }
      ],
      "stateMutability": "view",
      "type": "function"
    },
    {
      "inputs": [
        {
          "internalType": "address",
          "name": "owner",
          "type": "address"
        },
        {
          "internalType": "address",
          "name": "operator",
          "type": "address"
        }
      ],
      "name": "isApprovedForAll",
      "outputs": [
        {
          "internalType": "bool",
          "name": "",
          "type": "bool"
        }
      ],
      "stateMutability": "view",
      "type": "function"
    },
    {
      "inputs": [],
      "name": "name",
      "outputs": [
        {
          "internalType": "string",
          "name": "",
          "type": "string"
        }
      ],
      "stateMutability": "view",
      "type": "function"
    },
    {
      "inputs": [
        {
          "internalType": "uint256",
          "name": "tokenId",
          "type": "uint256"
        }
      ],
      "name": "ownerOf",
      "outputs": [
        {
          "internalType": "address",
          "name": "",
          "type": "address"
        }
      ],
      "stateMutability": "view",
      "type": "function"
    },
    {
      "inputs": [
        {
          "internalType": "string",
          "name": "tokenURI",
          "type": "string"
        }
      ],
      "name": "safeMint",
      "outputs": [
        {
          "internalType": "uint256",
          "name": "",
          "type": "uint256"
        }
      ],
      "stateMutability": "nonpayable",
      "type": "function"
    },
    {
      "inputs": [
        {
          "internalType": "address",
          "name": "from",
          "type": "address"
        },
        {
          "internalType": "address",
          "name": "to",
          "type": "address"
        },
        {
          "internalType": "uint256",
          "name": "tokenId",
          "type": "uint256"
        }
      ],
      "name": "safeTransferFrom",
      "outputs": [],
      "stateMutability": "nonpayable",
      "type": "function"
    },
    {
      "inputs": [
        {
          "internalType": "address",
          "name": "from",
          "type": "address"
        },
        {
          "internalType": "address",
          "name": "to",
          "type": "address"
        },
        {
          "internalType": "uint256",
          "name": "tokenId",
          "type": "uint256"
        },
        {
          "internalType": "bytes",
          "name": "data",
          "type": "bytes"
        }
      ],
      "name": "safeTransferFrom",
      "outputs": [],
      "stateMutability": "nonpayable",
      "type": "function"
    },
    {
      "inputs": [
        {
          "internalType": "address",
          "name": "operator",
          "type": "address"
        },
        {
          "internalType": "bool",
          "name": "approved",
          "type": "bool"
        }
      ],
      "name": "setApprovalForAll",
      "outputs": [],
      "stateMutability": "nonpayable",
      "type": "function"
    },
    {
      "inputs": [
        {
          "internalType": "bytes4",
          "name": "interfaceId",
          "type": "bytes4"
        }
      ],
      "name": "supportsInterface",
      "outputs": [
        {
          "internalType": "bool",
          "name": "",
          "type": "bool"
        }
      ],
      "stateMutability": "view",
      "type": "function"
    },
    {
      "inputs": [],
      "name": "symbol",
      "outputs": [
        {
          "internalType": "string",
          "name": "",
          "type": "string"
        }
      ],
      "stateMutability": "view",
      "type": "function"
    },
    {
      "inputs": [
        {
          "internalType": "uint256",
          "name": "",
          "type": "uint256"
        },
        {
          "internalType": "uint256",
          "name": "",
          "type": "uint256"
        }
      ],
      "name": "tokenIds",
      "outputs": [
        {
          "internalType": "uint256",
          "name": "",
          "type": "uint256"
        }
      ],
      "stateMutability": "view",
      "type": "function"
    },
    {
      "inputs": [
        {
          "internalType": "uint256",
          "name": "tokenId",
          "type": "uint256"
        }
      ],
      "name": "tokenURI",
      "outputs": [
        {
          "internalType": "string",
          "name": "",
          "type": "string"
        }
      ],
      "stateMutability": "view",
      "type": "function"
    },
    {
      "inputs": [
        {
          "internalType": "address",
          "name": "from",
          "type": "address"
        },
        {
          "internalType": "address",
          "name": "to",
          "type": "address"
        },
        {
          "internalType": "uint256",
          "name": "tokenId",
          "type": "uint256"
        }
      ],
      "name": "transferFrom",
      "outputs": [],
      "stateMutability": "nonpayable",
      "type": "function"
    },
    {
      "inputs": [
        {
          "internalType": "address",
          "name": "from",
          "type": "address"
        },
        {
          "internalType": "address",
          "name": "to",
          "type": "address"
        },
        {
          "internalType": "uint256",
          "name": "tokenId",
          "type": "uint256"
        }
      ],
      "name": "transferToken",
      "outputs": [],
      "stateMutability": "nonpayable",
      "type": "function"
    }
  ],
  "bytecode": "0x60806040523480156200001157600080fd5b506040518060400160405280600a81526020017f54727573746966696564000000000000000000000000000000000000000000008152506040518060400160405280600381526020017f54464e0000000000000000000000000000000000000000000000000000000000815250816000908051906020019062000096929190620000b8565b508060019080519060200190620000af929190620000b8565b505050620001cd565b828054620000c69062000168565b90600052602060002090601f016020900481019282620000ea576000855562000136565b82601f106200010557805160ff191683800117855562000136565b8280016001018555821562000136579182015b828111156200013557825182559160200191906001019062000118565b5b50905062000145919062000149565b5090565b5b80821115620001645760008160009055506001016200014a565b5090565b600060028204905060018216806200018157607f821691505b602082108114156200019857620001976200019e565b5b50919050565b7f4e487b7100000000000000000000000000000000000000000000000000000000600052602260045260246000fd5b6133e780620001dd6000396000f3fe608060405234801561001057600080fd5b50600436106101215760003560e01c806370a08231116100ad578063c87b56dd11610071578063c87b56dd1461032a578063d4d94b051461035a578063e985e9c514610376578063eed8cc35146103a6578063f5537ede146103d657610121565b806370a082311461028857806389f1aa39146102b857806395d89b41146102d4578063a22cb465146102f2578063b88d4fde1461030e57610121565b806323b872dd116100f457806323b872dd146101c057806342842e0e146101dc57806357991d30146101f85780636352211e14610228578063695850fb1461025857610121565b806301ffc9a71461012657806306fdde0314610156578063081812fc14610174578063095ea7b3146101a4575b600080fd5b610140600480360381019061013b9190612432565b6103f2565b60405161014d91906129ca565b60405180910390f35b61015e6104d4565b60405161016b91906129e5565b60405180910390f35b61018e60048036038101906101899190612519565b610566565b60405161019b91906128e1565b60405180910390f35b6101be60048036038101906101b991906123b5565b6105ac565b005b6101da60048036038101906101d591906122af565b6106c4565b005b6101f660048036038101906101f191906122af565b61071d565b005b610212600480360381019061020d9190612519565b61073d565b60405161021f91906129a8565b60405180910390f35b610242600480360381019061023d9190612519565b6107a8565b60405161024f91906128e1565b60405180910390f35b610272600480360381019061026d9190612484565b61082f565b60405161027f9190612bc7565b60405180910390f35b6102a2600480360381019061029d919061224a565b610865565b6040516102af9190612bc7565b60405180910390f35b6102d260048036038101906102cd91906123f1565b61091d565b005b6102dc610a1a565b6040516102e991906129e5565b60405180910390f35b61030c60048036038101906103079190612379565b610aac565b005b610328600480360381019061032391906122fe565b610ac2565b005b610344600480360381019061033f9190612519565b610b24565b60405161035191906129e5565b60405180910390f35b610374600480360381019061036f91906124c5565b610c37565b005b610390600480360381019061038b9190612273565b610cf4565b60405161039d91906129ca565b60405180910390f35b6103c060048036038101906103bb9190612542565b610d88565b6040516103cd9190612bc7565b60405180910390f35b6103f060048036038101906103eb91906122af565b610db9565b005b60007f80ac58cd000000000000000000000000000000000000000000000000000000007bffffffffffffffffffffffffffffffffffffffffffffffffffffffff1916827bffffffffffffffffffffffffffffffffffffffffffffffffffffffff191614806104bd57507f5b5e139f000000000000000000000000000000000000000000000000000000007bffffffffffffffffffffffffffffffffffffffffffffffffffffffff1916827bffffffffffffffffffffffffffffffffffffffffffffffffffffffff1916145b806104cd57506104cc82610efc565b5b9050919050565b6060600080546104e390612e51565b80601f016020809104026020016040519081016040528092919081815260200182805461050f90612e51565b801561055c5780601f106105315761010080835404028352916020019161055c565b820191906000526020600020905b81548152906001019060200180831161053f57829003601f168201915b5050505050905090565b600061057182610f66565b6004600083815260200190815260200160002060009054906101000a900473ffffffffffffffffffffffffffffffffffffffff169050919050565b60006105b7826107a8565b90508073ffffffffffffffffffffffffffffffffffffffff168373ffffffffffffffffffffffffffffffffffffffff161415610628576040517f08c379a000000000000000000000000000000000000000000000000000000000815260040161061f90612b47565b60405180910390fd5b8073ffffffffffffffffffffffffffffffffffffffff16610647610fb1565b73ffffffffffffffffffffffffffffffffffffffff161480610676575061067581610670610fb1565b610cf4565b5b6106b5576040517f08c379a00000000000000000000000000000000000000000000000000000000081526004016106ac90612b67565b60405180910390fd5b6106bf8383610fb9565b505050565b6106ce8382611072565b61070d576040517f08c379a000000000000000000000000000000000000000000000000000000000815260040161070490612b87565b60405180910390fd5b610718838383611107565b505050565b61073883838360405180602001604052806000815250610ac2565b505050565b60606009600083815260200190815260200160002080548060200260200160405190810160405280929190818152602001828054801561079c57602002820191906000526020600020905b815481526020019060010190808311610788575b50505050509050919050565b6000806107b483611401565b9050600073ffffffffffffffffffffffffffffffffffffffff168173ffffffffffffffffffffffffffffffffffffffff161415610826576040517f08c379a000000000000000000000000000000000000000000000000000000000815260040161081d90612b27565b60405180910390fd5b80915050919050565b60008061083c600761143e565b9050610848600761144c565b6108523082611462565b61085c8184611680565b80915050919050565b60008073ffffffffffffffffffffffffffffffffffffffff168273ffffffffffffffffffffffffffffffffffffffff1614156108d6576040517f08c379a00000000000000000000000000000000000000000000000000000000081526004016108cd90612ac7565b60405180910390fd5b600360008373ffffffffffffffffffffffffffffffffffffffff1673ffffffffffffffffffffffffffffffffffffffff168152602001908152602001600020549050919050565b6000610929600861143e565b9050610935600861144c565b60005b82518110156109dc57600061098c84838151811061097f577f4e487b7100000000000000000000000000000000000000000000000000000000600052603260045260246000fd5b602002602001015161082f565b9050600960008481526020019081526020016000208190806001815401808255809150506001900390600052602060002001600090919091909150555080806109d490612eb4565b915050610938565b507fb9144c96c86541f6fa89c9f2f02495cccf4b08cd6643e26d34ee00aa586558a83382604051610a0e92919061297f565b60405180910390a15050565b606060018054610a2990612e51565b80601f0160208091040260200160405190810160405280929190818152602001828054610a5590612e51565b8015610aa25780601f10610a7757610100808354040283529160200191610aa2565b820191906000526020600020905b815481529060010190602001808311610a8557829003601f168201915b5050505050905090565b610abe610ab7610fb1565b83836116f4565b5050565b610ad3610acd610fb1565b83611072565b610b12576040517f08c379a0000000000000000000000000000000000000000000000000000000008152600401610b0990612a07565b60405180910390fd5b610b1e84848484611861565b50505050565b6060610b2f82610f66565b6000600660008481526020019081526020016000208054610b4f90612e51565b80601f0160208091040260200160405190810160405280929190818152602001828054610b7b90612e51565b8015610bc85780601f10610b9d57610100808354040283529160200191610bc8565b820191906000526020600020905b815481529060010190602001808311610bab57829003601f168201915b505050505090506000610bd96118bd565b9050600081511415610bef578192505050610c32565b600082511115610c24578082604051602001610c0c9291906128bd565b60405160208183030381529060405292505050610c32565b610c2d846118d4565b925050505b919050565b6000610c43600861143e565b9050610c4f600861144c565b60005b82811015610cb5576000610c658561082f565b905060096000848152602001908152602001600020819080600181540180825580915050600190039060005260206000200160009091909190915055508080610cad90612eb4565b915050610c52565b507fb9144c96c86541f6fa89c9f2f02495cccf4b08cd6643e26d34ee00aa586558a83382604051610ce792919061297f565b60405180910390a1505050565b6000600560008473ffffffffffffffffffffffffffffffffffffffff1673ffffffffffffffffffffffffffffffffffffffff16815260200190815260200160002060008373ffffffffffffffffffffffffffffffffffffffff1673ffffffffffffffffffffffffffffffffffffffff16815260200190815260200160002060009054906101000a900460ff16905092915050565b60096020528160005260406000208181548110610da457600080fd5b90600052602060002001600091509150505481565b60011515600a600083815260200190815260200160002060009054906101000a900460ff1615151415610e21576040517f08c379a0000000000000000000000000000000000000000000000000000000008152600401610e1890612ba7565b60405180910390fd5b3073ffffffffffffffffffffffffffffffffffffffff166323b872dd8484846040518463ffffffff1660e01b8152600401610e5e939291906128fc565b600060405180830381600087803b158015610e7857600080fd5b505af1158015610e8c573d6000803e3d6000fd5b505050507fec61728879a33aa50b55e1f4789dcfc1c680f30a24d7b8694a9f874e242a97b4838383604051610ec3939291906128fc565b60405180910390a16001600a600083815260200190815260200160002060006101000a81548160ff021916908315150217905550505050565b60007f01ffc9a7000000000000000000000000000000000000000000000000000000007bffffffffffffffffffffffffffffffffffffffffffffffffffffffff1916827bffffffffffffffffffffffffffffffffffffffffffffffffffffffff1916149050919050565b610f6f8161193c565b610fae576040517f08c379a0000000000000000000000000000000000000000000000000000000008152600401610fa590612b27565b60405180910390fd5b50565b600033905090565b816004600083815260200190815260200160002060006101000a81548173ffffffffffffffffffffffffffffffffffffffff021916908373ffffffffffffffffffffffffffffffffffffffff160217905550808273ffffffffffffffffffffffffffffffffffffffff1661102c836107a8565b73ffffffffffffffffffffffffffffffffffffffff167f8c5be1e5ebec7d5bd14f71427d1e84f3dd0314c0f7b2291e5b200ac8c7c3b92560405160405180910390a45050565b60008061107e836107a8565b90508073ffffffffffffffffffffffffffffffffffffffff168473ffffffffffffffffffffffffffffffffffffffff1614806110c057506110bf8185610cf4565b5b806110fe57508373ffffffffffffffffffffffffffffffffffffffff166110e684610566565b73ffffffffffffffffffffffffffffffffffffffff16145b91505092915050565b8273ffffffffffffffffffffffffffffffffffffffff16611127826107a8565b73ffffffffffffffffffffffffffffffffffffffff161461117d576040517f08c379a000000000000000000000000000000000000000000000000000000000815260040161117490612a47565b60405180910390fd5b600073ffffffffffffffffffffffffffffffffffffffff168273ffffffffffffffffffffffffffffffffffffffff1614156111ed576040517f08c379a00000000000000000000000000000000000000000000000000000000081526004016111e490612a87565b60405180910390fd5b6111fa838383600161197d565b8273ffffffffffffffffffffffffffffffffffffffff1661121a826107a8565b73ffffffffffffffffffffffffffffffffffffffff1614611270576040517f08c379a000000000000000000000000000000000000000000000000000000000815260040161126790612a47565b60405180910390fd5b6004600082815260200190815260200160002060006101000a81549073ffffffffffffffffffffffffffffffffffffffff02191690556001600360008573ffffffffffffffffffffffffffffffffffffffff1673ffffffffffffffffffffffffffffffffffffffff168152602001908152602001600020600082825403925050819055506001600360008473ffffffffffffffffffffffffffffffffffffffff1673ffffffffffffffffffffffffffffffffffffffff16815260200190815260200160002060008282540192505081905550816002600083815260200190815260200160002060006101000a81548173ffffffffffffffffffffffffffffffffffffffff021916908373ffffffffffffffffffffffffffffffffffffffff160217905550808273ffffffffffffffffffffffffffffffffffffffff168473ffffffffffffffffffffffffffffffffffffffff167fddf252ad1be2c89b69c2b068fc378daa952ba7f163c4a11628f55a4df523b3ef60405160405180910390a46113fc8383836001611aa3565b505050565b60006002600083815260200190815260200160002060009054906101000a900473ffffffffffffffffffffffffffffffffffffffff169050919050565b600081600001549050919050565b6001816000016000828254019250508190555050565b600073ffffffffffffffffffffffffffffffffffffffff168273ffffffffffffffffffffffffffffffffffffffff1614156114d2576040517f08c379a00000000000000000000000000000000000000000000000000000000081526004016114c990612b07565b60405180910390fd5b6114db8161193c565b1561151b576040517f08c379a000000000000000000000000000000000000000000000000000000000815260040161151290612a67565b60405180910390fd5b61152960008383600161197d565b6115328161193c565b15611572576040517f08c379a000000000000000000000000000000000000000000000000000000000815260040161156990612a67565b60405180910390fd5b6001600360008473ffffffffffffffffffffffffffffffffffffffff1673ffffffffffffffffffffffffffffffffffffffff16815260200190815260200160002060008282540192505081905550816002600083815260200190815260200160002060006101000a81548173ffffffffffffffffffffffffffffffffffffffff021916908373ffffffffffffffffffffffffffffffffffffffff160217905550808273ffffffffffffffffffffffffffffffffffffffff16600073ffffffffffffffffffffffffffffffffffffffff167fddf252ad1be2c89b69c2b068fc378daa952ba7f163c4a11628f55a4df523b3ef60405160405180910390a461167c600083836001611aa3565b5050565b6116898261193c565b6116c8576040517f08c379a00000000000000000000000000000000000000000000000000000000081526004016116bf90612ae7565b60405180910390fd5b806006600084815260200190815260200160002090805190602001906116ef929190611fbe565b505050565b8173ffffffffffffffffffffffffffffffffffffffff168373ffffffffffffffffffffffffffffffffffffffff161415611763576040517f08c379a000000000000000000000000000000000000000000000000000000000815260040161175a90612aa7565b60405180910390fd5b80600560008573ffffffffffffffffffffffffffffffffffffffff1673ffffffffffffffffffffffffffffffffffffffff16815260200190815260200160002060008473ffffffffffffffffffffffffffffffffffffffff1673ffffffffffffffffffffffffffffffffffffffff16815260200190815260200160002060006101000a81548160ff0219169083151502179055508173ffffffffffffffffffffffffffffffffffffffff168373ffffffffffffffffffffffffffffffffffffffff167f17307eab39ab6107e8899845ad3d59bd9653f200f220920489ca2b5937696c318360405161185491906129ca565b60405180910390a3505050565b61186c848484611107565b61187884848484611aa9565b6118b7576040517f08c379a00000000000000000000000000000000000000000000000000000000081526004016118ae90612a27565b60405180910390fd5b50505050565b606060405180602001604052806000815250905090565b60606118df82610f66565b60006118e96118bd565b905060008151116119095760405180602001604052806000815250611934565b8061191384611c40565b6040516020016119249291906128bd565b6040516020818303038152906040525b915050919050565b60008073ffffffffffffffffffffffffffffffffffffffff1661195e83611401565b73ffffffffffffffffffffffffffffffffffffffff1614159050919050565b6001811115611a9d57600073ffffffffffffffffffffffffffffffffffffffff168473ffffffffffffffffffffffffffffffffffffffff1614611a115780600360008673ffffffffffffffffffffffffffffffffffffffff1673ffffffffffffffffffffffffffffffffffffffff1681526020019081526020016000206000828254611a099190612d67565b925050819055505b600073ffffffffffffffffffffffffffffffffffffffff168373ffffffffffffffffffffffffffffffffffffffff1614611a9c5780600360008573ffffffffffffffffffffffffffffffffffffffff1673ffffffffffffffffffffffffffffffffffffffff1681526020019081526020016000206000828254611a949190612d11565b925050819055505b5b50505050565b50505050565b6000611aca8473ffffffffffffffffffffffffffffffffffffffff16611d64565b15611c33578373ffffffffffffffffffffffffffffffffffffffff1663150b7a02611af3610fb1565b8786866040518563ffffffff1660e01b8152600401611b159493929190612933565b602060405180830381600087803b158015611b2f57600080fd5b505af1925050508015611b6057506040513d601f19601f82011682018060405250810190611b5d919061245b565b60015b611be3573d8060008114611b90576040519150601f19603f3d011682016040523d82523d6000602084013e611b95565b606091505b50600081511415611bdb576040517f08c379a0000000000000000000000000000000000000000000000000000000008152600401611bd290612a27565b60405180910390fd5b805181602001fd5b63150b7a0260e01b7bffffffffffffffffffffffffffffffffffffffffffffffffffffffff1916817bffffffffffffffffffffffffffffffffffffffffffffffffffffffff191614915050611c38565b600190505b949350505050565b606060006001611c4f84611d87565b01905060008167ffffffffffffffff811115611c94577f4e487b7100000000000000000000000000000000000000000000000000000000600052604160045260246000fd5b6040519080825280601f01601f191660200182016040528015611cc65781602001600182028036833780820191505090505b509050600082602001820190505b600115611d59578080600190039150507f3031323334353637383961626364656600000000000000000000000000000000600a86061a8153600a8581611d43577f4e487b7100000000000000000000000000000000000000000000000000000000600052601260045260246000fd5b0494506000851415611d5457611d59565b611cd4565b819350505050919050565b6000808273ffffffffffffffffffffffffffffffffffffffff163b119050919050565b600080600090507a184f03e93ff9f4daa797ed6e38ed64bf6a1f0100000000000000008310611e0b577a184f03e93ff9f4daa797ed6e38ed64bf6a1f0100000000000000008381611e01577f4e487b7100000000000000000000000000000000000000000000000000000000600052601260045260246000fd5b0492506040810190505b6d04ee2d6d415b85acef81000000008310611e6e576d04ee2d6d415b85acef81000000008381611e64577f4e487b7100000000000000000000000000000000000000000000000000000000600052601260045260246000fd5b0492506020810190505b662386f26fc100008310611ec357662386f26fc100008381611eb9577f4e487b7100000000000000000000000000000000000000000000000000000000600052601260045260246000fd5b0492506010810190505b6305f5e1008310611f12576305f5e1008381611f08577f4e487b7100000000000000000000000000000000000000000000000000000000600052601260045260246000fd5b0492506008810190505b6127108310611f5d576127108381611f53577f4e487b7100000000000000000000000000000000000000000000000000000000600052601260045260246000fd5b0492506004810190505b60648310611fa65760648381611f9c577f4e487b7100000000000000000000000000000000000000000000000000000000600052601260045260246000fd5b0492506002810190505b600a8310611fb5576001810190505b80915050919050565b828054611fca90612e51565b90600052602060002090601f016020900481019282611fec5760008555612033565b82601f1061200557805160ff1916838001178555612033565b82800160010185558215612033579182015b82811115612032578251825591602001919060010190612017565b5b5090506120409190612044565b5090565b5b8082111561205d576000816000905550600101612045565b5090565b600061207461206f84612c07565b612be2565b9050808382526020820190508285602086028201111561209357600080fd5b60005b858110156120dd57813567ffffffffffffffff8111156120b557600080fd5b8086016120c2898261220b565b85526020850194506020840193505050600181019050612096565b5050509392505050565b60006120fa6120f584612c33565b612be2565b90508281526020810184848401111561211257600080fd5b61211d848285612e0f565b509392505050565b600061213861213384612c64565b612be2565b90508281526020810184848401111561215057600080fd5b61215b848285612e0f565b509392505050565b60008135905061217281613355565b92915050565b600082601f83011261218957600080fd5b8135612199848260208601612061565b91505092915050565b6000813590506121b18161336c565b92915050565b6000813590506121c681613383565b92915050565b6000815190506121db81613383565b92915050565b600082601f8301126121f257600080fd5b81356122028482602086016120e7565b91505092915050565b600082601f83011261221c57600080fd5b813561222c848260208601612125565b91505092915050565b6000813590506122448161339a565b92915050565b60006020828403121561225c57600080fd5b600061226a84828501612163565b91505092915050565b6000806040838503121561228657600080fd5b600061229485828601612163565b92505060206122a585828601612163565b9150509250929050565b6000806000606084860312156122c457600080fd5b60006122d286828701612163565b93505060206122e386828701612163565b92505060406122f486828701612235565b9150509250925092565b6000806000806080858703121561231457600080fd5b600061232287828801612163565b945050602061233387828801612163565b935050604061234487828801612235565b925050606085013567ffffffffffffffff81111561236157600080fd5b61236d878288016121e1565b91505092959194509250565b6000806040838503121561238c57600080fd5b600061239a85828601612163565b92505060206123ab858286016121a2565b9150509250929050565b600080604083850312156123c857600080fd5b60006123d685828601612163565b92505060206123e785828601612235565b9150509250929050565b60006020828403121561240357600080fd5b600082013567ffffffffffffffff81111561241d57600080fd5b61242984828501612178565b91505092915050565b60006020828403121561244457600080fd5b6000612452848285016121b7565b91505092915050565b60006020828403121561246d57600080fd5b600061247b848285016121cc565b91505092915050565b60006020828403121561249657600080fd5b600082013567ffffffffffffffff8111156124b057600080fd5b6124bc8482850161220b565b91505092915050565b600080604083850312156124d857600080fd5b600083013567ffffffffffffffff8111156124f257600080fd5b6124fe8582860161220b565b925050602061250f85828601612235565b9150509250929050565b60006020828403121561252b57600080fd5b600061253984828501612235565b91505092915050565b6000806040838503121561255557600080fd5b600061256385828601612235565b925050602061257485828601612235565b9150509250929050565b600061258a838361289f565b60208301905092915050565b61259f81612d9b565b82525050565b60006125b082612ca5565b6125ba8185612cd3565b93506125c583612c95565b8060005b838110156125f65781516125dd888261257e565b97506125e883612cc6565b9250506001810190506125c9565b5085935050505092915050565b61260c81612dad565b82525050565b600061261d82612cb0565b6126278185612ce4565b9350612637818560208601612e1e565b61264081612f8a565b840191505092915050565b600061265682612cbb565b6126608185612cf5565b9350612670818560208601612e1e565b61267981612f8a565b840191505092915050565b600061268f82612cbb565b6126998185612d06565b93506126a9818560208601612e1e565b80840191505092915050565b60006126c2602d83612cf5565b91506126cd82612f9b565b604082019050919050565b60006126e5603283612cf5565b91506126f082612fea565b604082019050919050565b6000612708602583612cf5565b915061271382613039565b604082019050919050565b600061272b601c83612cf5565b915061273682613088565b602082019050919050565b600061274e602483612cf5565b9150612759826130b1565b604082019050919050565b6000612771601983612cf5565b915061277c82613100565b602082019050919050565b6000612794602983612cf5565b915061279f82613129565b604082019050919050565b60006127b7602e83612cf5565b91506127c282613178565b604082019050919050565b60006127da602083612cf5565b91506127e5826131c7565b602082019050919050565b60006127fd601883612cf5565b9150612808826131f0565b602082019050919050565b6000612820602183612cf5565b915061282b82613219565b604082019050919050565b6000612843603d83612cf5565b915061284e82613268565b604082019050919050565b6000612866603183612cf5565b9150612871826132b7565b604082019050919050565b6000612889602283612cf5565b915061289482613306565b604082019050919050565b6128a881612e05565b82525050565b6128b781612e05565b82525050565b60006128c98285612684565b91506128d58284612684565b91508190509392505050565b60006020820190506128f66000830184612596565b92915050565b60006060820190506129116000830186612596565b61291e6020830185612596565b61292b60408301846128ae565b949350505050565b60006080820190506129486000830187612596565b6129556020830186612596565b61296260408301856128ae565b81810360608301526129748184612612565b905095945050505050565b60006040820190506129946000830185612596565b6129a160208301846128ae565b9392505050565b600060208201905081810360008301526129c281846125a5565b905092915050565b60006020820190506129df6000830184612603565b92915050565b600060208201905081810360008301526129ff818461264b565b905092915050565b60006020820190508181036000830152612a20816126b5565b9050919050565b60006020820190508181036000830152612a40816126d8565b9050919050565b60006020820190508181036000830152612a60816126fb565b9050919050565b60006020820190508181036000830152612a808161271e565b9050919050565b60006020820190508181036000830152612aa081612741565b9050919050565b60006020820190508181036000830152612ac081612764565b9050919050565b60006020820190508181036000830152612ae081612787565b9050919050565b60006020820190508181036000830152612b00816127aa565b9050919050565b60006020820190508181036000830152612b20816127cd565b9050919050565b60006020820190508181036000830152612b40816127f0565b9050919050565b60006020820190508181036000830152612b6081612813565b9050919050565b60006020820190508181036000830152612b8081612836565b9050919050565b60006020820190508181036000830152612ba081612859565b9050919050565b60006020820190508181036000830152612bc08161287c565b9050919050565b6000602082019050612bdc60008301846128ae565b92915050565b6000612bec612bfd565b9050612bf88282612e83565b919050565b6000604051905090565b600067ffffffffffffffff821115612c2257612c21612f5b565b5b602082029050602081019050919050565b600067ffffffffffffffff821115612c4e57612c4d612f5b565b5b612c5782612f8a565b9050602081019050919050565b600067ffffffffffffffff821115612c7f57612c7e612f5b565b5b612c8882612f8a565b9050602081019050919050565b6000819050602082019050919050565b600081519050919050565b600081519050919050565b600081519050919050565b6000602082019050919050565b600082825260208201905092915050565b600082825260208201905092915050565b600082825260208201905092915050565b600081905092915050565b6000612d1c82612e05565b9150612d2783612e05565b9250827fffffffffffffffffffffffffffffffffffffffffffffffffffffffffffffffff03821115612d5c57612d5b612efd565b5b828201905092915050565b6000612d7282612e05565b9150612d7d83612e05565b925082821015612d9057612d8f612efd565b5b828203905092915050565b6000612da682612de5565b9050919050565b60008115159050919050565b60007fffffffff0000000000000000000000000000000000000000000000000000000082169050919050565b600073ffffffffffffffffffffffffffffffffffffffff82169050919050565b6000819050919050565b82818337600083830152505050565b60005b83811015612e3c578082015181840152602081019050612e21565b83811115612e4b576000848401525b50505050565b60006002820490506001821680612e6957607f821691505b60208210811415612e7d57612e7c612f2c565b5b50919050565b612e8c82612f8a565b810181811067ffffffffffffffff82111715612eab57612eaa612f5b565b5b80604052505050565b6000612ebf82612e05565b91507fffffffffffffffffffffffffffffffffffffffffffffffffffffffffffffffff821415612ef257612ef1612efd565b5b600182019050919050565b7f4e487b7100000000000000000000000000000000000000000000000000000000600052601160045260246000fd5b7f4e487b7100000000000000000000000000000000000000000000000000000000600052602260045260246000fd5b7f4e487b7100000000000000000000000000000000000000000000000000000000600052604160045260246000fd5b6000601f19601f8301169050919050565b7f4552433732313a2063616c6c6572206973206e6f7420746f6b656e206f776e6560008201527f72206f7220617070726f76656400000000000000000000000000000000000000602082015250565b7f4552433732313a207472616e7366657220746f206e6f6e20455243373231526560008201527f63656976657220696d706c656d656e7465720000000000000000000000000000602082015250565b7f4552433732313a207472616e736665722066726f6d20696e636f72726563742060008201527f6f776e6572000000000000000000000000000000000000000000000000000000602082015250565b7f4552433732313a20746f6b656e20616c7265616479206d696e74656400000000600082015250565b7f4552433732313a207472616e7366657220746f20746865207a65726f2061646460008201527f7265737300000000000000000000000000000000000000000000000000000000602082015250565b7f4552433732313a20617070726f766520746f2063616c6c657200000000000000600082015250565b7f4552433732313a2061646472657373207a65726f206973206e6f74206120766160008201527f6c6964206f776e65720000000000000000000000000000000000000000000000602082015250565b7f45524337323155524953746f726167653a2055524920736574206f66206e6f6e60008201527f6578697374656e7420746f6b656e000000000000000000000000000000000000602082015250565b7f4552433732313a206d696e7420746f20746865207a65726f2061646472657373600082015250565b7f4552433732313a20696e76616c696420746f6b656e2049440000000000000000600082015250565b7f4552433732313a20617070726f76616c20746f2063757272656e74206f776e6560008201527f7200000000000000000000000000000000000000000000000000000000000000602082015250565b7f4552433732313a20617070726f76652063616c6c6572206973206e6f7420746f60008201527f6b656e206f776e6572206f7220617070726f76656420666f7220616c6c000000602082015250565b7f4552433732313a207472616e736665722063616c6c6572206973206e6f74206f60008201527f776e6572206e6f7220617070726f766564000000000000000000000000000000602082015250565b7f5468697320746f6b656e2063616e206e6f74206265207472616e73666572726560008201527f6421000000000000000000000000000000000000000000000000000000000000602082015250565b61335e81612d9b565b811461336957600080fd5b50565b61337581612dad565b811461338057600080fd5b50565b61338c81612db9565b811461339757600080fd5b50565b6133a381612e05565b81146133ae57600080fd5b5056fea26469706673582212204f2c88a22d992cdfc550df28d368052a02badc52f086d16c272b5a6b7b420ea664736f6c63430008040033",
  "linkReferences": {},
  "deployedLinkReferences": {}
}