{
  "_format": "hh-sol-artifact-1",
  "contractName": "TrustifiedCred",
  "sourceName": "contracts/TrustifiedCred.sol",
  "abi": [
    {
      "inputs": [
        {
          "components": [
            {
              "internalType": "address",
              "name": "contractAddress",
              "type": "address"
            },
            {
              "internalType": "uint256",
              "name": "merkleTreeDepth",
              "type": "uint256"
            }
          ],
          "internalType": "struct ICredential.Verifier[]",
          "name": "_verifiers",
          "type": "tuple[]"
        },
        {
          "internalType": "address",
          "name": "_issuer",
          "type": "address"
        },
        {
          "internalType": "string",
          "name": "_issuerName",
          "type": "string"
        },
        {
          "internalType": "string",
          "name": "_issuerSymbol",
          "type": "string"
        }
      ],
      "stateMutability": "nonpayable",
      "type": "constructor"
    },
    {
      "inputs": [],
      "name": "Credential__CallerIsNotTheCredIssuer",
      "type": "error"
    },
    {
      "inputs": [],
      "name": "Credential__CredAlreadyExists",
      "type": "error"
    },
    {
      "inputs": [],
      "name": "Credential__CredDoesNotExist",
      "type": "error"
    },
    {
      "inputs": [],
      "name": "Credential__CredIdIsNotLessThanSnarkScalarField",
      "type": "error"
    },
    {
      "inputs": [],
      "name": "Credential__MerkleTreeDepthIsNotSupported",
      "type": "error"
    },
    {
      "inputs": [],
      "name": "Credential__MerkleTreeRootIsExpired",
      "type": "error"
    },
    {
      "inputs": [],
      "name": "Credential__MerkleTreeRootIsNotPartOfTheCred",
      "type": "error"
    },
    {
      "inputs": [],
      "name": "Credential__YouAreUsingTheSameNillifierTwice",
      "type": "error"
    },
    {
      "anonymous": false,
      "inputs": [
        {
          "indexed": false,
          "internalType": "address",
          "name": "",
          "type": "address"
        },
        {
          "indexed": false,
          "internalType": "uint256",
          "name": "",
          "type": "uint256"
        },
        {
          "indexed": false,
          "internalType": "uint256",
          "name": "",
          "type": "uint256"
        },
        {
          "indexed": false,
          "internalType": "uint256",
          "name": "",
          "type": "uint256"
        },
        {
          "indexed": false,
          "internalType": "string",
          "name": "",
          "type": "string"
        }
      ],
      "name": "CredCreated",
      "type": "event"
    },
    {
      "anonymous": false,
      "inputs": [
        {
          "indexed": true,
          "internalType": "address",
          "name": "issuer",
          "type": "address"
        },
        {
          "indexed": true,
          "internalType": "uint256",
          "name": "credId",
          "type": "uint256"
        },
        {
          "indexed": false,
          "internalType": "uint256",
          "name": "merkleTreeDepth",
          "type": "uint256"
        },
        {
          "indexed": false,
          "internalType": "uint256",
          "name": "zeroValue",
          "type": "uint256"
        }
      ],
      "name": "CredCreated",
      "type": "event"
    },
    {
      "anonymous": false,
      "inputs": [
        {
          "indexed": true,
          "internalType": "uint256",
          "name": "credId",
          "type": "uint256"
        },
        {
          "indexed": false,
          "internalType": "uint256",
          "name": "index",
          "type": "uint256"
        },
        {
          "indexed": false,
          "internalType": "uint256",
          "name": "identityCommitment",
          "type": "uint256"
        },
        {
          "indexed": false,
          "internalType": "uint256",
          "name": "merkleTreeRoot",
          "type": "uint256"
        }
      ],
      "name": "IdentityAdded",
      "type": "event"
    },
    {
      "anonymous": false,
      "inputs": [
        {
          "indexed": true,
          "internalType": "uint256",
          "name": "credId",
          "type": "uint256"
        },
        {
          "indexed": false,
          "internalType": "uint256",
          "name": "index",
          "type": "uint256"
        },
        {
          "indexed": false,
          "internalType": "uint256",
          "name": "identityCommitment",
          "type": "uint256"
        },
        {
          "indexed": false,
          "internalType": "uint256",
          "name": "merkleTreeRoot",
          "type": "uint256"
        }
      ],
      "name": "IdentityRemoved",
      "type": "event"
    },
    {
      "anonymous": false,
      "inputs": [
        {
          "indexed": true,
          "internalType": "uint256",
          "name": "credId",
          "type": "uint256"
        },
        {
          "indexed": false,
          "internalType": "uint256",
          "name": "index",
          "type": "uint256"
        },
        {
          "indexed": false,
          "internalType": "uint256",
          "name": "identityCommitment",
          "type": "uint256"
        },
        {
          "indexed": false,
          "internalType": "uint256",
          "name": "newIdentityCommitment",
          "type": "uint256"
        },
        {
          "indexed": false,
          "internalType": "uint256",
          "name": "merkleTreeRoot",
          "type": "uint256"
        }
      ],
      "name": "IdentityUpdated",
      "type": "event"
    },
    {
      "anonymous": false,
      "inputs": [
        {
          "indexed": false,
          "internalType": "address",
          "name": "",
          "type": "address"
        },
        {
          "indexed": false,
          "internalType": "uint256",
          "name": "",
          "type": "uint256"
        },
        {
          "indexed": false,
          "internalType": "uint256",
          "name": "",
          "type": "uint256"
        }
      ],
      "name": "IssueCred",
      "type": "event"
    },
    {
      "anonymous": false,
      "inputs": [
        {
          "indexed": false,
          "internalType": "uint256",
          "name": "nullifierHash",
          "type": "uint256"
        }
      ],
      "name": "NullifierHashAdded",
      "type": "event"
    },
    {
      "anonymous": false,
      "inputs": [
        {
          "indexed": true,
          "internalType": "uint256",
          "name": "credId",
          "type": "uint256"
        },
        {
          "indexed": false,
          "internalType": "uint256",
          "name": "merkleTreeRoot",
          "type": "uint256"
        },
        {
          "indexed": false,
          "internalType": "uint256",
          "name": "externalNullifier",
          "type": "uint256"
        },
        {
          "indexed": false,
          "internalType": "uint256",
          "name": "nullifierHash",
          "type": "uint256"
        },
        {
          "indexed": false,
          "internalType": "bytes32",
          "name": "signal",
          "type": "bytes32"
        }
      ],
      "name": "ProofVerified",
      "type": "event"
    },
    {
      "anonymous": false,
      "inputs": [
        {
          "indexed": true,
          "internalType": "address",
          "name": "issuerAddress",
          "type": "address"
        },
        {
          "indexed": true,
          "internalType": "string",
          "name": "issuerName",
          "type": "string"
        },
        {
          "indexed": true,
          "internalType": "string",
          "name": "issuerSymbol",
          "type": "string"
        }
      ],
      "name": "issuerRegistered",
      "type": "event"
    },
    {
      "inputs": [
        {
          "internalType": "uint256",
          "name": "credId",
          "type": "uint256"
        },
        {
          "internalType": "uint256",
          "name": "identityCommitment",
          "type": "uint256"
        }
      ],
      "name": "claimCredToTrustifiedIssuer",
      "outputs": [],
      "stateMutability": "nonpayable",
      "type": "function"
    },
    {
      "inputs": [
        {
          "internalType": "uint256",
          "name": "",
          "type": "uint256"
        }
      ],
      "name": "creds",
      "outputs": [
        {
          "internalType": "address",
          "name": "admin",
          "type": "address"
        },
        {
          "internalType": "string",
          "name": "credURI",
          "type": "string"
        },
        {
          "internalType": "uint256",
          "name": "merkleRootDuration",
          "type": "uint256"
        }
      ],
      "stateMutability": "view",
      "type": "function"
    },
    {
      "inputs": [],
      "name": "credsIssuedCount",
      "outputs": [
        {
          "internalType": "uint256",
          "name": "",
          "type": "uint256"
        }
      ],
      "stateMutability": "view",
      "type": "function"
    },
    {
      "inputs": [],
      "name": "credsIssuer",
      "outputs": [
        {
          "internalType": "address",
          "name": "",
          "type": "address"
        }
      ],
      "stateMutability": "view",
      "type": "function"
    },
    {
      "inputs": [],
      "name": "credsProtocolRegistry",
      "outputs": [
        {
          "internalType": "address",
          "name": "",
          "type": "address"
        }
      ],
      "stateMutability": "view",
      "type": "function"
    },
    {
      "inputs": [
        {
          "internalType": "uint256",
          "name": "credID",
          "type": "uint256"
        }
      ],
      "name": "getMerkleTreeDepth",
      "outputs": [
        {
          "internalType": "uint256",
          "name": "",
          "type": "uint256"
        }
      ],
      "stateMutability": "view",
      "type": "function"
    },
    {
      "inputs": [
        {
          "internalType": "uint256",
          "name": "credID",
          "type": "uint256"
        }
      ],
      "name": "getMerkleTreeRoot",
      "outputs": [
        {
          "internalType": "uint256",
          "name": "",
          "type": "uint256"
        }
      ],
      "stateMutability": "view",
      "type": "function"
    },
    {
      "inputs": [
        {
          "internalType": "uint256",
          "name": "credID",
          "type": "uint256"
        }
      ],
      "name": "getNumberOfMerkleTreeLeaves",
      "outputs": [
        {
          "internalType": "uint256",
          "name": "",
          "type": "uint256"
        }
      ],
      "stateMutability": "view",
      "type": "function"
    },
    {
      "inputs": [
        {
          "internalType": "uint256",
          "name": "merkleTreeDepth",
          "type": "uint256"
        },
        {
          "internalType": "uint256",
          "name": "zeroValue",
          "type": "uint256"
        },
        {
          "internalType": "string",
          "name": "credURI",
          "type": "string"
        }
      ],
      "name": "issueCred",
      "outputs": [],
      "stateMutability": "nonpayable",
      "type": "function"
    },
    {
      "inputs": [],
      "name": "issuerName",
      "outputs": [
        {
          "internalType": "string",
          "name": "",
          "type": "string"
        }
      ],
      "stateMutability": "view",
      "type": "function"
    },
    {
      "inputs": [],
      "name": "issuerSymbol",
      "outputs": [
        {
          "internalType": "string",
          "name": "",
          "type": "string"
        }
      ],
      "stateMutability": "view",
      "type": "function"
    },
    {
      "inputs": [],
      "name": "owner",
      "outputs": [
        {
          "internalType": "address",
          "name": "",
          "type": "address"
        }
      ],
      "stateMutability": "view",
      "type": "function"
    },
    {
      "inputs": [
        {
          "internalType": "uint256",
          "name": "",
          "type": "uint256"
        }
      ],
      "name": "verifiers",
      "outputs": [
        {
          "internalType": "contract IVerifier",
          "name": "",
          "type": "address"
        }
      ],
      "stateMutability": "view",
      "type": "function"
    }
  ],
  "bytecode": "0x608060405273414b893562f46f5180971c3389784a447581b2d3600560006101000a81548173ffffffffffffffffffffffffffffffffffffffff021916908373ffffffffffffffffffffffffffffffffffffffff1602179055503480156200006657600080fd5b5060405162001a7a38038062001a7a83398181016040528101906200008c91906200055b565b8383838360005b84518160ff1610156200018e57848160ff1681518110620000dd577f4e487b7100000000000000000000000000000000000000000000000000000000600052603260045260246000fd5b60200260200101516000015160066000878460ff16815181106200012a577f4e487b7100000000000000000000000000000000000000000000000000000000600052603260045260246000fd5b602002602001015160200151815260200190815260200160002060006101000a81548173ffffffffffffffffffffffffffffffffffffffff021916908373ffffffffffffffffffffffffffffffffffffffff16021790555080600101905062000093565b5082600160006101000a81548173ffffffffffffffffffffffffffffffffffffffff021916908373ffffffffffffffffffffffffffffffffffffffff1602179055508160029080519060200190620001e892919062000316565b5080600390805190602001906200020192919062000316565b50600560009054906101000a900473ffffffffffffffffffffffffffffffffffffffff1673ffffffffffffffffffffffffffffffffffffffff1663c2551c8284306040518363ffffffff1660e01b81526004016200026192919062000673565b600060405180830381600087803b1580156200027c57600080fd5b505af115801562000291573d6000803e3d6000fd5b5050505080604051620002a591906200065a565b604051809103902082604051620002bd91906200065a565b60405180910390208473ffffffffffffffffffffffffffffffffffffffff167ff51d47712d8574bf3715cf1db64ebb5a5c264fe57ff450433484f786f742ecec60405160405180910390a45050505050505050620008c7565b8280546200032490620007b8565b90600052602060002090601f01602090048101928262000348576000855562000394565b82601f106200036357805160ff191683800117855562000394565b8280016001018555821562000394579182015b828111156200039357825182559160200191906001019062000376565b5b509050620003a39190620003a7565b5090565b5b80821115620003c2576000816000905550600101620003a8565b5090565b6000620003dd620003d784620006c9565b620006a0565b90508083825260208201905082856040860282011115620003fd57600080fd5b60005b85811015620004315781620004168882620004f1565b84526020840193506040830192505060018101905062000400565b5050509392505050565b6000620004526200044c84620006f8565b620006a0565b9050828152602081018484840111156200046b57600080fd5b6200047884828562000782565b509392505050565b600081519050620004918162000893565b92915050565b600082601f830112620004a957600080fd5b8151620004bb848260208601620003c6565b91505092915050565b600082601f830112620004d657600080fd5b8151620004e88482602086016200043b565b91505092915050565b6000604082840312156200050457600080fd5b620005106040620006a0565b90506000620005228482850162000480565b6000830152506020620005388482850162000544565b60208301525092915050565b6000815190506200055581620008ad565b92915050565b600080600080608085870312156200057257600080fd5b600085015167ffffffffffffffff8111156200058d57600080fd5b6200059b8782880162000497565b9450506020620005ae8782880162000480565b935050604085015167ffffffffffffffff811115620005cc57600080fd5b620005da87828801620004c4565b925050606085015167ffffffffffffffff811115620005f857600080fd5b6200060687828801620004c4565b91505092959194509250565b6200061d8162000744565b82525050565b600062000630826200072e565b6200063c818562000739565b93506200064e81856020860162000782565b80840191505092915050565b600062000668828462000623565b915081905092915050565b60006040820190506200068a600083018562000612565b62000699602083018462000612565b9392505050565b6000620006ac620006bf565b9050620006ba8282620007ee565b919050565b6000604051905090565b600067ffffffffffffffff821115620006e757620006e662000853565b5b602082029050602081019050919050565b600067ffffffffffffffff82111562000716576200071562000853565b5b620007218262000882565b9050602081019050919050565b600081519050919050565b600081905092915050565b6000620007518262000758565b9050919050565b600073ffffffffffffffffffffffffffffffffffffffff82169050919050565b6000819050919050565b60005b83811015620007a257808201518184015260208101905062000785565b83811115620007b2576000848401525b50505050565b60006002820490506001821680620007d157607f821691505b60208210811415620007e857620007e762000824565b5b50919050565b620007f98262000882565b810181811067ffffffffffffffff821117156200081b576200081a62000853565b5b80604052505050565b7f4e487b7100000000000000000000000000000000000000000000000000000000600052602260045260246000fd5b7f4e487b7100000000000000000000000000000000000000000000000000000000600052604160045260246000fd5b6000601f19601f8301169050919050565b6200089e8162000744565b8114620008aa57600080fd5b50565b620008b88162000778565b8114620008c457600080fd5b50565b6111a380620008d76000396000f3fe608060405234801561001057600080fd5b50600436106100cf5760003560e01c80638da5cb5b1161008c578063c308dd5b11610066578063c308dd5b1461022a578063dabc4d5114610248578063e69743cd14610278578063eb49610614610294576100cf565b80638da5cb5b146101c0578063909d9ef7146101de578063ac1eff68146101fa576100cf565b80632e9868f8146100d4578063439d7275146100f25780634ce39ead14610110578063638480be1461012e5780636389e1071461015e57806381cc7a451461018e575b600080fd5b6100dc6102b2565b6040516100e99190610dba565b60405180910390f35b6100fa610340565b6040516101079190610dba565b60405180910390f35b6101186103ce565b6040516101259190610cec565b60405180910390f35b61014860048036038101906101439190610ba4565b6103f4565b6040516101559190610e3c565b60405180910390f35b61017860048036038101906101739190610ba4565b610413565b6040516101859190610e3c565b60405180910390f35b6101a860048036038101906101a39190610ba4565b610432565b6040516101b793929190610d07565b60405180910390f35b6101c8610504565b6040516101d59190610cec565b60405180910390f35b6101f860048036038101906101f39190610c09565b61052a565b005b610214600480360381019061020f9190610ba4565b610594565b6040516102219190610d9f565b60405180910390f35b6102326105c7565b60405161023f9190610cec565b60405180910390f35b610262600480360381019061025d9190610ba4565b6105ed565b60405161026f9190610e3c565b60405180910390f35b610292600480360381019061028d9190610bcd565b61060c565b005b61029c61061a565b6040516102a99190610e3c565b60405180910390f35b600280546102bf90611055565b80601f01602080910402602001604051908101604052809291908181526020018280546102eb90611055565b80156103385780601f1061030d57610100808354040283529160200191610338565b820191906000526020600020905b81548152906001019060200180831161031b57829003601f168201915b505050505081565b6003805461034d90611055565b80601f016020809104026020016040519081016040528092919081815260200182805461037990611055565b80156103c65780601f1061039b576101008083540402835291602001916103c6565b820191906000526020600020905b8154815290600101906020018083116103a957829003601f168201915b505050505081565b600160009054906101000a900473ffffffffffffffffffffffffffffffffffffffff1681565b6000806000838152602001908152602001600020600201549050919050565b6000806000838152602001908152602001600020600001549050919050565b60076020528060005260406000206000915090508060000160009054906101000a900473ffffffffffffffffffffffffffffffffffffffff169080600101805461047b90611055565b80601f01602080910402602001604051908101604052809291908181526020018280546104a790611055565b80156104f45780601f106104c9576101008083540402835291602001916104f4565b820191906000526020600020905b8154815290600101906020018083116104d757829003601f168201915b5050505050908060020154905083565b600960009054906101000a900473ffffffffffffffffffffffffffffffffffffffff1681565b60006105366008610620565b9050610542600861062e565b61054f8185853386610644565b7f2ed4f0a950535d9dbe363dbcdaedbbdf03aa9f33d5b1b70b74554debef4d10f43382868686604051610586959493929190610d45565b60405180910390a150505050565b60066020528060005260406000206000915054906101000a900473ffffffffffffffffffffffffffffffffffffffff1681565b600560009054906101000a900473ffffffffffffffffffffffffffffffffffffffff1681565b6000806000838152602001908152602001600020600101549050919050565b61061682826107a5565b5050565b60045481565b600081600001549050919050565b6001816000016000828254019250508190555050565b83600073ffffffffffffffffffffffffffffffffffffffff166006600083815260200190815260200160002060009054906101000a900473ffffffffffffffffffffffffffffffffffffffff1673ffffffffffffffffffffffffffffffffffffffff1614156106df576040517f679101ad00000000000000000000000000000000000000000000000000000000815260040160405180910390fd5b6106eb338787876107ed565b826007600088815260200190815260200160002060000160006101000a81548173ffffffffffffffffffffffffffffffffffffffff021916908373ffffffffffffffffffffffffffffffffffffffff1602179055508160076000888152602001908152602001600020600101908051906020019061076a929190610a84565b50610e10600760008881526020019081526020016000206002018190555060016004546107979190610f29565b600481905550505050505050565b6107af828261095d565b60006107ba836105ed565b90504260076000858152602001908152602001600020600301600083815260200190815260200160002081905550505050565b7f30644e72e131a029b85045b68181585d2833e84879b9709143e1f593f00000018310610846576040517fe730108f00000000000000000000000000000000000000000000000000000000815260040160405180910390fd5b600061085184610413565b14610888576040517f632ab44600000000000000000000000000000000000000000000000000000000815260040160405180910390fd5b60008084815260200190815260200160002073__$fb9ee77876a75724f11f9f12d9558a3f31$__631095fbb4909184846040518463ffffffff1660e01b81526004016108d693929190610e05565b60006040518083038186803b1580156108ee57600080fd5b505af4158015610902573d6000803e3d6000fd5b50505050828473ffffffffffffffffffffffffffffffffffffffff167f8cd7e348e0ad6531fc8e95ec90286ba9246aa70c3d94d7fca9eb8afd6e78c35e848460405161094f929190610e57565b60405180910390a350505050565b600061096883610413565b14156109a0576040517f84124a0d00000000000000000000000000000000000000000000000000000000815260040160405180910390fd5b60008083815260200190815260200160002073__$fb9ee77876a75724f11f9f12d9558a3f31$__63168703fa9091836040518363ffffffff1660e01b81526004016109ec929190610ddc565b60006040518083038186803b158015610a0457600080fd5b505af4158015610a18573d6000803e3d6000fd5b505050506000610a27836105ed565b905060006001610a36856103f4565b610a409190610f7f565b9050837fe5b5631e8acf74ed776b8262e656d2b63e56882d6eb3e7d6e8b8c09661f2ca03828585604051610a7693929190610e80565b60405180910390a250505050565b828054610a9090611055565b90600052602060002090601f016020900481019282610ab25760008555610af9565b82601f10610acb57805160ff1916838001178555610af9565b82800160010185558215610af9579182015b82811115610af8578251825591602001919060010190610add565b5b509050610b069190610b0a565b5090565b5b80821115610b23576000816000905550600101610b0b565b5090565b6000610b3a610b3584610edc565b610eb7565b905082815260208101848484011115610b5257600080fd5b610b5d848285611013565b509392505050565b600082601f830112610b7657600080fd5b8135610b86848260208601610b27565b91505092915050565b600081359050610b9e81611156565b92915050565b600060208284031215610bb657600080fd5b6000610bc484828501610b8f565b91505092915050565b60008060408385031215610be057600080fd5b6000610bee85828601610b8f565b9250506020610bff85828601610b8f565b9150509250929050565b600080600060608486031215610c1e57600080fd5b6000610c2c86828701610b8f565b9350506020610c3d86828701610b8f565b925050604084013567ffffffffffffffff811115610c5a57600080fd5b610c6686828701610b65565b9150509250925092565b610c7981610fb3565b82525050565b610c8881610fef565b82525050565b6000610c9982610f0d565b610ca38185610f18565b9350610cb3818560208601611022565b610cbc81611145565b840191505092915050565b8082525050565b610cd781610fe5565b82525050565b610ce681610fe5565b82525050565b6000602082019050610d016000830184610c70565b92915050565b6000606082019050610d1c6000830186610c70565b8181036020830152610d2e8185610c8e565b9050610d3d6040830184610cce565b949350505050565b600060a082019050610d5a6000830188610c70565b610d676020830187610cce565b610d746040830186610cce565b610d816060830185610cce565b8181036080830152610d938184610c8e565b90509695505050505050565b6000602082019050610db46000830184610c7f565b92915050565b60006020820190508181036000830152610dd48184610c8e565b905092915050565b6000604082019050610df16000830185610cc7565b610dfe6020830184610cdd565b9392505050565b6000606082019050610e1a6000830186610cc7565b610e276020830185610cdd565b610e346040830184610cdd565b949350505050565b6000602082019050610e516000830184610cce565b92915050565b6000604082019050610e6c6000830185610cce565b610e796020830184610cce565b9392505050565b6000606082019050610e956000830186610cce565b610ea26020830185610cce565b610eaf6040830184610cce565b949350505050565b6000610ec1610ed2565b9050610ecd8282611087565b919050565b6000604051905090565b600067ffffffffffffffff821115610ef757610ef6611116565b5b610f0082611145565b9050602081019050919050565b600081519050919050565b600082825260208201905092915050565b6000610f3482610fe5565b9150610f3f83610fe5565b9250827fffffffffffffffffffffffffffffffffffffffffffffffffffffffffffffffff03821115610f7457610f736110b8565b5b828201905092915050565b6000610f8a82610fe5565b9150610f9583610fe5565b925082821015610fa857610fa76110b8565b5b828203905092915050565b6000610fbe82610fc5565b9050919050565b600073ffffffffffffffffffffffffffffffffffffffff82169050919050565b6000819050919050565b6000610ffa82611001565b9050919050565b600061100c82610fc5565b9050919050565b82818337600083830152505050565b60005b83811015611040578082015181840152602081019050611025565b8381111561104f576000848401525b50505050565b6000600282049050600182168061106d57607f821691505b60208210811415611081576110806110e7565b5b50919050565b61109082611145565b810181811067ffffffffffffffff821117156110af576110ae611116565b5b80604052505050565b7f4e487b7100000000000000000000000000000000000000000000000000000000600052601160045260246000fd5b7f4e487b7100000000000000000000000000000000000000000000000000000000600052602260045260246000fd5b7f4e487b7100000000000000000000000000000000000000000000000000000000600052604160045260246000fd5b6000601f19601f8301169050919050565b61115f81610fe5565b811461116a57600080fd5b5056fea2646970667358221220dd2571cc5f732723909b8df8a96a3e9c98a295162094be23a0e6494c2d49a4d764736f6c63430008040033",
  "linkReferences": {
    "@creds-protocol/contracts/zk-kit/incremental-merkle-tree.sol/IncrementalBinaryTree.sol": {
      "IncrementalBinaryTree": [
        {
          "length": 20,
          "start": 4467
        },
        {
          "length": 20,
          "start": 4747
        }
      ]
    }
  },
  "deployedLinkReferences": {
    "@creds-protocol/contracts/zk-kit/incremental-merkle-tree.sol/IncrementalBinaryTree.sol": {
      "IncrementalBinaryTree": [
        {
          "length": 20,
          "start": 2204
        },
        {
          "length": 20,
          "start": 2484
        }
      ]
    }
  }
}